{"contracts/RafflePersonalizado.sol":{"RafflePersonalizado":{"abi":[{"inputs":[{"internalType":"address","name":"vrfCoordinatorV2","type":"address"},{"internalType":"uint64","name":"subscriptionId","type":"uint64"},{"internalType":"bytes32","name":"gasLane","type":"bytes32"},{"internalType":"uint256","name":"interval","type":"uint256"},{"internalType":"uint256","name":"entranceFee","type":"uint256"},{"internalType":"uint32","name":"callbackGasLimit","type":"uint32"}],"stateMutability":"nonpayable","type":"constructor"},{"inputs":[{"internalType":"address","name":"have","type":"address"},{"internalType":"address","name":"want","type":"address"}],"name":"OnlyCoordinatorCanFulfill","type":"error"},{"inputs":[],"name":"Raffle__RaffleNotOpen","type":"error"},{"inputs":[],"name":"Raffle__SendMoreToEnterRaffle","type":"error"},{"inputs":[{"internalType":"uint256","name":"currentBalance","type":"uint256"},{"internalType":"uint256","name":"numPlayers","type":"uint256"},{"internalType":"uint256","name":"raffleState","type":"uint256"}],"name":"Raffle__UpkeepNotNeeded","type":"error"},{"anonymous":false,"inputs":[{"indexed":true,"internalType":"address","name":"player","type":"address"}],"name":"RaffleEnter","type":"event"},{"anonymous":false,"inputs":[{"indexed":true,"internalType":"uint256","name":"requestId","type":"uint256"}],"name":"RequestedRaffleWinner","type":"event"},{"anonymous":false,"inputs":[{"components":[{"internalType":"address","name":"jugador","type":"address"},{"internalType":"uint256","name":"cantidadGanada","type":"uint256"}],"indexed":true,"internalType":"struct RafflePersonalizado.JugadoresGanadores[]","name":"players","type":"tuple[]"}],"name":"WinnerPicked","type":"event"},{"inputs":[{"internalType":"bytes","name":"","type":"bytes"}],"name":"checkUpkeep","outputs":[{"internalType":"bool","name":"upkeepNeeded","type":"bool"},{"internalType":"bytes","name":"","type":"bytes"}],"stateMutability":"view","type":"function"},{"inputs":[{"internalType":"uint256","name":"numTicket","type":"uint256"}],"name":"enterRaffle","outputs":[],"stateMutability":"payable","type":"function"},{"inputs":[],"name":"getEntranceFee","outputs":[{"internalType":"uint256","name":"","type":"uint256"}],"stateMutability":"view","type":"function"},{"inputs":[],"name":"getInterval","outputs":[{"internalType":"uint256","name":"","type":"uint256"}],"stateMutability":"view","type":"function"},{"inputs":[],"name":"getLastTimeStamp","outputs":[{"internalType":"uint256","name":"","type":"uint256"}],"stateMutability":"view","type":"function"},{"inputs":[],"name":"getNumWords","outputs":[{"internalType":"uint256","name":"","type":"uint256"}],"stateMutability":"pure","type":"function"},{"inputs":[],"name":"getNumberOfPlayers","outputs":[{"internalType":"uint256","name":"","type":"uint256"}],"stateMutability":"view","type":"function"},{"inputs":[{"internalType":"uint256","name":"index","type":"uint256"}],"name":"getPlayer","outputs":[{"internalType":"address","name":"","type":"address"}],"stateMutability":"view","type":"function"},{"inputs":[],"name":"getRaffleState","outputs":[{"internalType":"enum RafflePersonalizado.RaffleState","name":"","type":"uint8"}],"stateMutability":"view","type":"function"},{"inputs":[],"name":"getRecentWinner","outputs":[{"internalType":"address","name":"","type":"address"}],"stateMutability":"view","type":"function"},{"inputs":[],"name":"getRequestConfirmations","outputs":[{"internalType":"uint256","name":"","type":"uint256"}],"stateMutability":"pure","type":"function"},{"inputs":[],"name":"obtenerActualRondaLoteria","outputs":[{"internalType":"uint256","name":"","type":"uint256"}],"stateMutability":"view","type":"function"},{"inputs":[],"name":"obtenerGanadoresRecientes","outputs":[{"components":[{"internalType":"address","name":"jugador","type":"address"},{"internalType":"uint256","name":"cantidadGanada","type":"uint256"}],"internalType":"struct RafflePersonalizado.JugadoresGanadores[]","name":"","type":"tuple[]"}],"stateMutability":"view","type":"function"},{"inputs":[{"internalType":"bytes","name":"","type":"bytes"}],"name":"performUpkeep","outputs":[],"stateMutability":"nonpayable","type":"function"},{"inputs":[{"internalType":"uint256","name":"requestId","type":"uint256"},{"internalType":"uint256[]","name":"randomWords","type":"uint256[]"}],"name":"rawFulfillRandomWords","outputs":[],"stateMutability":"nonpayable","type":"function"},{"inputs":[{"internalType":"address","name":"direccionJugador","type":"address"}],"name":"sacarGanancias","outputs":[],"stateMutability":"nonpayable","type":"function"}],"devdoc":{"author":"Yoel Torres","details":"implementando chainlink VRF","kind":"dev","methods":{"checkUpkeep(bytes)":{"details":"This is the function that the Chainlink Keeper nodes call they look for `upkeepNeeded` to return True. the following should be true for this to return true: 1. The time interval has passed between raffle runs. 2. The lottery is open. 3. The contract has ETH. 4. Implicity, your subscription is funded with LINK."},"performUpkeep(bytes)":{"details":"Once `checkUpkeep` is returning `true`, this function is called and it kicks off a Chainlink VRF call to get a random winner."}},"title":"Contrato Rifa","version":1},"evm":{"bytecode":{"linkReferences":{},"object":"61016060405260016004553480156200001757600080fd5b50604051620020ea380380620020ea83398181016040528101906200003d919062000299565b858073ffffffffffffffffffffffffffffffffffffffff1660808173ffffffffffffffffffffffffffffffffffffffff1681525050508573ffffffffffffffffffffffffffffffffffffffff1660a08173ffffffffffffffffffffffffffffffffffffffff16815250508360e081815250508261012081815250508467ffffffffffffffff1660c08167ffffffffffffffff16815250508161014081815250506000600360006101000a81548160ff0219169083600181111562000106576200010562000335565b5b0217905550426000819055508063ffffffff166101008163ffffffff168152505050505050505062000364565b600080fd5b600073ffffffffffffffffffffffffffffffffffffffff82169050919050565b6000620001658262000138565b9050919050565b620001778162000158565b81146200018357600080fd5b50565b60008151905062000197816200016c565b92915050565b600067ffffffffffffffff82169050919050565b620001bc816200019d565b8114620001c857600080fd5b50565b600081519050620001dc81620001b1565b92915050565b6000819050919050565b620001f781620001e2565b81146200020357600080fd5b50565b6000815190506200021781620001ec565b92915050565b6000819050919050565b62000232816200021d565b81146200023e57600080fd5b50565b600081519050620002528162000227565b92915050565b600063ffffffff82169050919050565b620002738162000258565b81146200027f57600080fd5b50565b600081519050620002938162000268565b92915050565b60008060008060008060c08789031215620002b957620002b862000133565b5b6000620002c989828a0162000186565b9650506020620002dc89828a01620001cb565b9550506040620002ef89828a0162000206565b94505060606200030289828a0162000241565b93505060806200031589828a0162000241565b92505060a06200032889828a0162000282565b9150509295509295509295565b7f4e487b7100000000000000000000000000000000000000000000000000000000600052602160045260246000fd5b60805160a05160c05160e051610100516101205161014051611d16620003d4600039600081816105dd0152610799015260008181610c5e0152610d0701526000610b1201526000610ace01526000610aef01526000610a920152600081816106d9015261072d0152611d166000f3fe6080604052600436106100f35760003560e01c806353a2c19a1161008a57806391ad27b41161005957806391ad27b4146102fa578063c1c244e814610325578063e55ae4e814610350578063fd6673f51461038d576100f3565b806353a2c19a1461023b5780635617c2c1146102665780635f1b0fd8146102915780636e04ff0d146102bc576100f3565b80631fe543e3116100c65780631fe543e3146101a25780632e519f90146101cb5780634585e33b146101e7578063473f1ddc14610210576100f3565b8063098128e5146100f857806309bc33a714610121578063115cbaf51461014c578063166c13db14610177575b600080fd5b34801561010457600080fd5b5061011f600480360381019061011a9190611113565b6103b8565b005b34801561012d57600080fd5b506101366105d9565b6040516101439190611159565b60405180910390f35b34801561015857600080fd5b50610161610601565b60405161016e91906111eb565b60405180910390f35b34801561018357600080fd5b5061018c610618565b6040516101999190611302565b60405180910390f35b3480156101ae57600080fd5b506101c960048036038101906101c491906114a9565b6106d7565b005b6101e560048036038101906101e09190611505565b610797565b005b3480156101f357600080fd5b5061020e6004803603810190610209919061158d565b6109da565b005b34801561021c57600080fd5b50610225610bcb565b60405161023291906115e9565b60405180910390f35b34801561024757600080fd5b50610250610bf5565b60405161025d9190611159565b60405180910390f35b34801561027257600080fd5b5061027b610c04565b6040516102889190611159565b60405180910390f35b34801561029d57600080fd5b506102a6610c0e565b6040516102b39190611159565b60405180910390f35b3480156102c857600080fd5b506102e360048036038101906102de91906116b9565b610c1b565b6040516102f192919061179c565b60405180910390f35b34801561030657600080fd5b5061030f610d03565b60405161031c9190611159565b60405180910390f35b34801561033157600080fd5b5061033a610d2b565b6040516103479190611159565b60405180910390f35b34801561035c57600080fd5b5061037760048036038101906103729190611505565b610d34565b60405161038491906115e9565b60405180910390f35b34801561039957600080fd5b506103a2610d7c565b6040516103af9190611159565b60405180910390f35b60006006805480602002602001604051908101604052809291908181526020016000905b8282101561046e57838290600052602060002090600202016040518060400160405290816000820160009054906101000a900473ffffffffffffffffffffffffffffffffffffffff1673ffffffffffffffffffffffffffffffffffffffff1673ffffffffffffffffffffffffffffffffffffffff168152602001600182015481525050815260200190600101906103dc565b50505050905060005b81518110156105d4578273ffffffffffffffffffffffffffffffffffffffff168282815181106104aa576104a96117cc565b5b60200260200101516000015173ffffffffffffffffffffffffffffffffffffffff16036105c15760008282815181106104e6576104e56117cc565b5b602002602001015160200151905060068281548110610508576105076117cc565b5b9060005260206000209060020201600080820160006101000a81549073ffffffffffffffffffffffffffffffffffffffff02191690556001820160009055505060008473ffffffffffffffffffffffffffffffffffffffff168260405161056e9061182c565b60006040518083038185875af1925050503d80600081146105ab576040519150601f19603f3d011682016040523d82523d6000602084013e6105b0565b606091505b50509050806105be57600080fd5b50505b80806105cc90611870565b915050610477565b505050565b60007f0000000000000000000000000000000000000000000000000000000000000000905090565b6000600360009054906101000a900460ff16905090565b60606006805480602002602001604051908101604052809291908181526020016000905b828210156106ce57838290600052602060002090600202016040518060400160405290816000820160009054906101000a900473ffffffffffffffffffffffffffffffffffffffff1673ffffffffffffffffffffffffffffffffffffffff1673ffffffffffffffffffffffffffffffffffffffff1681526020016001820154815250508152602001906001019061063c565b50505050905090565b7f000000000000000000000000000000000000000000000000000000000000000073ffffffffffffffffffffffffffffffffffffffff163373ffffffffffffffffffffffffffffffffffffffff161461078957337f00000000000000000000000000000000000000000000000000000000000000006040517f1cf993f40000000000000000000000000000000000000000000000000000000081526004016107809291906118b8565b60405180910390fd5b6107938282610d89565b5050565b7f00000000000000000000000000000000000000000000000000000000000000003410156107f1576040517f3038c00a00000000000000000000000000000000000000000000000000000000815260040160405180910390fd5b6000600181111561080557610804611174565b5b600360009054906101000a900460ff16600181111561082757610826611174565b5b1461085e576040517fd24a271400000000000000000000000000000000000000000000000000000000815260040160405180910390fd5b600060405180604001604052808381526020013373ffffffffffffffffffffffffffffffffffffffff16815250905060056000600454815260200190815260200160002060008381526020019081526020016000208190806001815401808255809150506001900390600052602060002090600202016000909190919091506000820151816000015560208201518160010160006101000a81548173ffffffffffffffffffffffffffffffffffffffff021916908373ffffffffffffffffffffffffffffffffffffffff16021790555050506002339080600181540180825580915050600190039060005260206000200160009091909190916101000a81548173ffffffffffffffffffffffffffffffffffffffff021916908373ffffffffffffffffffffffffffffffffffffffff1602179055503373ffffffffffffffffffffffffffffffffffffffff167f0805e1d667bddb8a95f0f09880cf94f403fb596ce79928d9f29b74203ba284d460405160405180910390a25050565b60006109f460405180602001604052806000815250610c1b565b50905080610a635747600280549050600360009054906101000a900460ff166001811115610a2557610a24611174565b5b6040517f584327aa000000000000000000000000000000000000000000000000000000008152600401610a5a939291906118e1565b60405180910390fd5b6001600360006101000a81548160ff02191690836001811115610a8957610a88611174565b5b021790555060007f000000000000000000000000000000000000000000000000000000000000000073ffffffffffffffffffffffffffffffffffffffff16635d3b1d307f00000000000000000000000000000000000000000000000000000000000000007f000000000000000000000000000000000000000000000000000000000000000060037f000000000000000000000000000000000000000000000000000000000000000060016040518663ffffffff1660e01b8152600401610b53959493929190611990565b6020604051808303816000875af1158015610b72573d6000803e3d6000fd5b505050506040513d601f19601f82011682018060405250810190610b9691906119f8565b9050807fcd6e45c8998311cab7e9d4385596cac867e20a0587194b954fa3a731c93ce78b60405160405180910390a250505050565b6000600160009054906101000a900473ffffffffffffffffffffffffffffffffffffffff16905090565b6000600163ffffffff16905090565b6000600454905090565b6000600361ffff16905090565b600060606000600360009054906101000a900460ff166001811115610c4357610c42611174565b5b60006001811115610c5757610c56611174565b5b14905060007f000000000000000000000000000000000000000000000000000000000000000060005442610c8b9190611a25565b11905060008060028054905011905060008047119050828015610cab5750835b8015610cb45750805b8015610cbd5750815b9550856040518060400160405280600381526020017f30783000000000000000000000000000000000000000000000000000000000008152509550955050505050915091565b60007f0000000000000000000000000000000000000000000000000000000000000000905090565b60008054905090565b600060028281548110610d4a57610d496117cc565b5b9060005260206000200160009054906101000a900473ffffffffffffffffffffffffffffffffffffffff169050919050565b6000600280549050905090565b6000606482600081518110610da157610da06117cc565b5b6020026020010151610db39190611a88565b905060066000610dc39190611037565b60006005600060045481526020019081526020016000206000838152602001908152602001600020805480602002602001604051908101604052809291908181526020016000905b82821015610e9d5783829060005260206000209060020201604051806040016040529081600082015481526020016001820160009054906101000a900473ffffffffffffffffffffffffffffffffffffffff1673ffffffffffffffffffffffffffffffffffffffff1673ffffffffffffffffffffffffffffffffffffffff168152505081526020019060010190610e0b565b5050505090506000815147610eb29190611ab9565b905060005b8251811015610fa05760006040518060400160405280858481518110610ee057610edf6117cc565b5b60200260200101516020015173ffffffffffffffffffffffffffffffffffffffff168152602001848152509050600681908060018154018082558091505060019003906000526020600020906002020160009091909190915060008201518160000160006101000a81548173ffffffffffffffffffffffffffffffffffffffff021916908373ffffffffffffffffffffffffffffffffffffffff160217905550602082015181600101555050508080610f9890611870565b915050610eb7565b50600160046000828254610fb49190611aea565b925050819055506000600360006101000a81548160ff02191690836001811115610fe157610fe0611174565b5b0217905550426000819055506006604051610ffc9190611cc9565b60405180910390207f2ef0928cb344c60a4c10ab3bcdef9a6e1a4d94a2006d1582be17cfdd799b6e2760405160405180910390a25050505050565b5080546000825560020290600052602060002090810190611058919061105b565b50565b5b8082111561109d57600080820160006101000a81549073ffffffffffffffffffffffffffffffffffffffff021916905560018201600090555060020161105c565b5090565b6000604051905090565b600080fd5b600080fd5b600073ffffffffffffffffffffffffffffffffffffffff82169050919050565b60006110e0826110b5565b9050919050565b6110f0816110d5565b81146110fb57600080fd5b50565b60008135905061110d816110e7565b92915050565b600060208284031215611129576111286110ab565b5b6000611137848285016110fe565b91505092915050565b6000819050919050565b61115381611140565b82525050565b600060208201905061116e600083018461114a565b92915050565b7f4e487b7100000000000000000000000000000000000000000000000000000000600052602160045260246000fd5b600281106111b4576111b3611174565b5b50565b60008190506111c5826111a3565b919050565b60006111d5826111b7565b9050919050565b6111e5816111ca565b82525050565b600060208201905061120060008301846111dc565b92915050565b600081519050919050565b600082825260208201905092915050565b6000819050602082019050919050565b61123b816110d5565b82525050565b61124a81611140565b82525050565b6040820160008201516112666000850182611232565b5060208201516112796020850182611241565b50505050565b600061128b8383611250565b60408301905092915050565b6000602082019050919050565b60006112af82611206565b6112b98185611211565b93506112c483611222565b8060005b838110156112f55781516112dc888261127f565b97506112e783611297565b9250506001810190506112c8565b5085935050505092915050565b6000602082019050818103600083015261131c81846112a4565b905092915050565b61132d81611140565b811461133857600080fd5b50565b60008135905061134a81611324565b92915050565b600080fd5b6000601f19601f8301169050919050565b7f4e487b7100000000000000000000000000000000000000000000000000000000600052604160045260246000fd5b61139e82611355565b810181811067ffffffffffffffff821117156113bd576113bc611366565b5b80604052505050565b60006113d06110a1565b90506113dc8282611395565b919050565b600067ffffffffffffffff8211156113fc576113fb611366565b5b602082029050602081019050919050565b600080fd5b6000611425611420846113e1565b6113c6565b905080838252602082019050602084028301858111156114485761144761140d565b5b835b81811015611471578061145d888261133b565b84526020840193505060208101905061144a565b5050509392505050565b600082601f8301126114905761148f611350565b5b81356114a0848260208601611412565b91505092915050565b600080604083850312156114c0576114bf6110ab565b5b60006114ce8582860161133b565b925050602083013567ffffffffffffffff8111156114ef576114ee6110b0565b5b6114fb8582860161147b565b9150509250929050565b60006020828403121561151b5761151a6110ab565b5b60006115298482850161133b565b91505092915050565b600080fd5b60008083601f84011261154d5761154c611350565b5b8235905067ffffffffffffffff81111561156a57611569611532565b5b6020830191508360018202830111156115865761158561140d565b5b9250929050565b600080602083850312156115a4576115a36110ab565b5b600083013567ffffffffffffffff8111156115c2576115c16110b0565b5b6115ce85828601611537565b92509250509250929050565b6115e3816110d5565b82525050565b60006020820190506115fe60008301846115da565b92915050565b600080fd5b600067ffffffffffffffff82111561162457611623611366565b5b61162d82611355565b9050602081019050919050565b82818337600083830152505050565b600061165c61165784611609565b6113c6565b90508281526020810184848401111561167857611677611604565b5b61168384828561163a565b509392505050565b600082601f8301126116a05761169f611350565b5b81356116b0848260208601611649565b91505092915050565b6000602082840312156116cf576116ce6110ab565b5b600082013567ffffffffffffffff8111156116ed576116ec6110b0565b5b6116f98482850161168b565b91505092915050565b60008115159050919050565b61171781611702565b82525050565b600081519050919050565b600082825260208201905092915050565b60005b8381101561175757808201518184015260208101905061173c565b60008484015250505050565b600061176e8261171d565b6117788185611728565b9350611788818560208601611739565b61179181611355565b840191505092915050565b60006040820190506117b1600083018561170e565b81810360208301526117c38184611763565b90509392505050565b7f4e487b7100000000000000000000000000000000000000000000000000000000600052603260045260246000fd5b600081905092915050565b50565b60006118166000836117fb565b915061182182611806565b600082019050919050565b600061183782611809565b9150819050919050565b7f4e487b7100000000000000000000000000000000000000000000000000000000600052601160045260246000fd5b600061187b82611140565b91507fffffffffffffffffffffffffffffffffffffffffffffffffffffffffffffffff82036118ad576118ac611841565b5b600182019050919050565b60006040820190506118cd60008301856115da565b6118da60208301846115da565b9392505050565b60006060820190506118f6600083018661114a565b611903602083018561114a565b611910604083018461114a565b949350505050565b6000819050919050565b61192b81611918565b82525050565b600067ffffffffffffffff82169050919050565b61194e81611931565b82525050565b600061ffff82169050919050565b61196b81611954565b82525050565b600063ffffffff82169050919050565b61198a81611971565b82525050565b600060a0820190506119a56000830188611922565b6119b26020830187611945565b6119bf6040830186611962565b6119cc6060830185611981565b6119d96080830184611981565b9695505050505050565b6000815190506119f281611324565b92915050565b600060208284031215611a0e57611a0d6110ab565b5b6000611a1c848285016119e3565b91505092915050565b6000611a3082611140565b9150611a3b83611140565b9250828203905081811115611a5357611a52611841565b5b92915050565b7f4e487b7100000000000000000000000000000000000000000000000000000000600052601260045260246000fd5b6000611a9382611140565b9150611a9e83611140565b925082611aae57611aad611a59565b5b828206905092915050565b6000611ac482611140565b9150611acf83611140565b925082611adf57611ade611a59565b5b828204905092915050565b6000611af582611140565b9150611b0083611140565b9250828201905080821115611b1857611b17611841565b5b92915050565b600081549050919050565b600081905092915050565b60008190508160005260206000209050919050565b60008160001c9050919050565b600073ffffffffffffffffffffffffffffffffffffffff82169050919050565b6000611b89611b8483611b49565b611b56565b9050919050565b611b99816110d5565b82525050565b6000611bab8383611b90565b60208301905092915050565b6000819050919050565b6000611bd4611bcf83611b49565b611bb7565b9050919050565b611be481611140565b82525050565b6000611bf68383611bdb565b60208301905092915050565b600082016000808301549050611c1781611b76565b611c218582611b9f565b94505060018301549050611c3481611bc1565b611c3e8582611bea565b94505050505050565b6000611c538383611c02565b60408301905092915050565b6000600282019050919050565b6000611c7782611b1e565b611c818185611b29565b9350611c8c83611b34565b8060005b83811015611cbc5781611ca38882611c47565b9750611cae83611c5f565b925050600181019050611c90565b5085935050505092915050565b6000611cd58284611c6c565b91508190509291505056fea2646970667358221220c60864ea911ca2f43431384e350211fcd95b6100e5fa6e32d81ddc0f931cfd2064736f6c63430008110033","opcodes":"PUSH2 0x160 PUSH1 0x40 MSTORE PUSH1 0x1 PUSH1 0x4 SSTORE CALLVALUE DUP1 ISZERO PUSH3 0x17 JUMPI PUSH1 0x0 DUP1 REVERT JUMPDEST POP PUSH1 0x40 MLOAD PUSH3 0x20EA CODESIZE SUB DUP1 PUSH3 0x20EA DUP4 CODECOPY DUP2 DUP2 ADD PUSH1 0x40 MSTORE DUP2 ADD SWAP1 PUSH3 0x3D SWAP2 SWAP1 PUSH3 0x299 JUMP JUMPDEST DUP6 DUP1 PUSH20 0xFFFFFFFFFFFFFFFFFFFFFFFFFFFFFFFFFFFFFFFF AND PUSH1 0x80 DUP2 PUSH20 0xFFFFFFFFFFFFFFFFFFFFFFFFFFFFFFFFFFFFFFFF AND DUP2 MSTORE POP POP POP DUP6 PUSH20 0xFFFFFFFFFFFFFFFFFFFFFFFFFFFFFFFFFFFFFFFF AND PUSH1 0xA0 DUP2 PUSH20 0xFFFFFFFFFFFFFFFFFFFFFFFFFFFFFFFFFFFFFFFF AND DUP2 MSTORE POP POP DUP4 PUSH1 0xE0 DUP2 DUP2 MSTORE POP POP DUP3 PUSH2 0x120 DUP2 DUP2 MSTORE POP POP DUP5 PUSH8 0xFFFFFFFFFFFFFFFF AND PUSH1 0xC0 DUP2 PUSH8 0xFFFFFFFFFFFFFFFF AND DUP2 MSTORE POP POP DUP2 PUSH2 0x140 DUP2 DUP2 MSTORE POP POP PUSH1 0x0 PUSH1 0x3 PUSH1 0x0 PUSH2 0x100 EXP DUP2 SLOAD DUP2 PUSH1 0xFF MUL NOT AND SWAP1 DUP4 PUSH1 0x1 DUP2 GT ISZERO PUSH3 0x106 JUMPI PUSH3 0x105 PUSH3 0x335 JUMP JUMPDEST JUMPDEST MUL OR SWAP1 SSTORE POP TIMESTAMP PUSH1 0x0 DUP2 SWAP1 SSTORE POP DUP1 PUSH4 0xFFFFFFFF AND PUSH2 0x100 DUP2 PUSH4 0xFFFFFFFF AND DUP2 MSTORE POP POP POP POP POP POP POP POP PUSH3 0x364 JUMP JUMPDEST PUSH1 0x0 DUP1 REVERT JUMPDEST PUSH1 0x0 PUSH20 0xFFFFFFFFFFFFFFFFFFFFFFFFFFFFFFFFFFFFFFFF DUP3 AND SWAP1 POP SWAP2 SWAP1 POP JUMP JUMPDEST PUSH1 0x0 PUSH3 0x165 DUP3 PUSH3 0x138 JUMP JUMPDEST SWAP1 POP SWAP2 SWAP1 POP JUMP JUMPDEST PUSH3 0x177 DUP2 PUSH3 0x158 JUMP JUMPDEST DUP2 EQ PUSH3 0x183 JUMPI PUSH1 0x0 DUP1 REVERT JUMPDEST POP JUMP JUMPDEST PUSH1 0x0 DUP2 MLOAD SWAP1 POP PUSH3 0x197 DUP2 PUSH3 0x16C JUMP JUMPDEST SWAP3 SWAP2 POP POP JUMP JUMPDEST PUSH1 0x0 PUSH8 0xFFFFFFFFFFFFFFFF DUP3 AND SWAP1 POP SWAP2 SWAP1 POP JUMP JUMPDEST PUSH3 0x1BC DUP2 PUSH3 0x19D JUMP JUMPDEST DUP2 EQ PUSH3 0x1C8 JUMPI PUSH1 0x0 DUP1 REVERT JUMPDEST POP JUMP JUMPDEST PUSH1 0x0 DUP2 MLOAD SWAP1 POP PUSH3 0x1DC DUP2 PUSH3 0x1B1 JUMP JUMPDEST SWAP3 SWAP2 POP POP JUMP JUMPDEST PUSH1 0x0 DUP2 SWAP1 POP SWAP2 SWAP1 POP JUMP JUMPDEST PUSH3 0x1F7 DUP2 PUSH3 0x1E2 JUMP JUMPDEST DUP2 EQ PUSH3 0x203 JUMPI PUSH1 0x0 DUP1 REVERT JUMPDEST POP JUMP JUMPDEST PUSH1 0x0 DUP2 MLOAD SWAP1 POP PUSH3 0x217 DUP2 PUSH3 0x1EC JUMP JUMPDEST SWAP3 SWAP2 POP POP JUMP JUMPDEST PUSH1 0x0 DUP2 SWAP1 POP SWAP2 SWAP1 POP JUMP JUMPDEST PUSH3 0x232 DUP2 PUSH3 0x21D JUMP JUMPDEST DUP2 EQ PUSH3 0x23E JUMPI PUSH1 0x0 DUP1 REVERT JUMPDEST POP JUMP JUMPDEST PUSH1 0x0 DUP2 MLOAD SWAP1 POP PUSH3 0x252 DUP2 PUSH3 0x227 JUMP JUMPDEST SWAP3 SWAP2 POP POP JUMP JUMPDEST PUSH1 0x0 PUSH4 0xFFFFFFFF DUP3 AND SWAP1 POP SWAP2 SWAP1 POP JUMP JUMPDEST PUSH3 0x273 DUP2 PUSH3 0x258 JUMP JUMPDEST DUP2 EQ PUSH3 0x27F JUMPI PUSH1 0x0 DUP1 REVERT JUMPDEST POP JUMP JUMPDEST PUSH1 0x0 DUP2 MLOAD SWAP1 POP PUSH3 0x293 DUP2 PUSH3 0x268 JUMP JUMPDEST SWAP3 SWAP2 POP POP JUMP JUMPDEST PUSH1 0x0 DUP1 PUSH1 0x0 DUP1 PUSH1 0x0 DUP1 PUSH1 0xC0 DUP8 DUP10 SUB SLT ISZERO PUSH3 0x2B9 JUMPI PUSH3 0x2B8 PUSH3 0x133 JUMP JUMPDEST JUMPDEST PUSH1 0x0 PUSH3 0x2C9 DUP10 DUP3 DUP11 ADD PUSH3 0x186 JUMP JUMPDEST SWAP7 POP POP PUSH1 0x20 PUSH3 0x2DC DUP10 DUP3 DUP11 ADD PUSH3 0x1CB JUMP JUMPDEST SWAP6 POP POP PUSH1 0x40 PUSH3 0x2EF DUP10 DUP3 DUP11 ADD PUSH3 0x206 JUMP JUMPDEST SWAP5 POP POP PUSH1 0x60 PUSH3 0x302 DUP10 DUP3 DUP11 ADD PUSH3 0x241 JUMP JUMPDEST SWAP4 POP POP PUSH1 0x80 PUSH3 0x315 DUP10 DUP3 DUP11 ADD PUSH3 0x241 JUMP JUMPDEST SWAP3 POP POP PUSH1 0xA0 PUSH3 0x328 DUP10 DUP3 DUP11 ADD PUSH3 0x282 JUMP JUMPDEST SWAP2 POP POP SWAP3 SWAP6 POP SWAP3 SWAP6 POP SWAP3 SWAP6 JUMP JUMPDEST PUSH32 0x4E487B7100000000000000000000000000000000000000000000000000000000 PUSH1 0x0 MSTORE PUSH1 0x21 PUSH1 0x4 MSTORE PUSH1 0x24 PUSH1 0x0 REVERT JUMPDEST PUSH1 0x80 MLOAD PUSH1 0xA0 MLOAD PUSH1 0xC0 MLOAD PUSH1 0xE0 MLOAD PUSH2 0x100 MLOAD PUSH2 0x120 MLOAD PUSH2 0x140 MLOAD PUSH2 0x1D16 PUSH3 0x3D4 PUSH1 0x0 CODECOPY PUSH1 0x0 DUP2 DUP2 PUSH2 0x5DD ADD MSTORE PUSH2 0x799 ADD MSTORE PUSH1 0x0 DUP2 DUP2 PUSH2 0xC5E ADD MSTORE PUSH2 0xD07 ADD MSTORE PUSH1 0x0 PUSH2 0xB12 ADD MSTORE PUSH1 0x0 PUSH2 0xACE ADD MSTORE PUSH1 0x0 PUSH2 0xAEF ADD MSTORE PUSH1 0x0 PUSH2 0xA92 ADD MSTORE PUSH1 0x0 DUP2 DUP2 PUSH2 0x6D9 ADD MSTORE PUSH2 0x72D ADD MSTORE PUSH2 0x1D16 PUSH1 0x0 RETURN INVALID PUSH1 0x80 PUSH1 0x40 MSTORE PUSH1 0x4 CALLDATASIZE LT PUSH2 0xF3 JUMPI PUSH1 0x0 CALLDATALOAD PUSH1 0xE0 SHR DUP1 PUSH4 0x53A2C19A GT PUSH2 0x8A JUMPI DUP1 PUSH4 0x91AD27B4 GT PUSH2 0x59 JUMPI DUP1 PUSH4 0x91AD27B4 EQ PUSH2 0x2FA JUMPI DUP1 PUSH4 0xC1C244E8 EQ PUSH2 0x325 JUMPI DUP1 PUSH4 0xE55AE4E8 EQ PUSH2 0x350 JUMPI DUP1 PUSH4 0xFD6673F5 EQ PUSH2 0x38D JUMPI PUSH2 0xF3 JUMP JUMPDEST DUP1 PUSH4 0x53A2C19A EQ PUSH2 0x23B JUMPI DUP1 PUSH4 0x5617C2C1 EQ PUSH2 0x266 JUMPI DUP1 PUSH4 0x5F1B0FD8 EQ PUSH2 0x291 JUMPI DUP1 PUSH4 0x6E04FF0D EQ PUSH2 0x2BC JUMPI PUSH2 0xF3 JUMP JUMPDEST DUP1 PUSH4 0x1FE543E3 GT PUSH2 0xC6 JUMPI DUP1 PUSH4 0x1FE543E3 EQ PUSH2 0x1A2 JUMPI DUP1 PUSH4 0x2E519F90 EQ PUSH2 0x1CB JUMPI DUP1 PUSH4 0x4585E33B EQ PUSH2 0x1E7 JUMPI DUP1 PUSH4 0x473F1DDC EQ PUSH2 0x210 JUMPI PUSH2 0xF3 JUMP JUMPDEST DUP1 PUSH4 0x98128E5 EQ PUSH2 0xF8 JUMPI DUP1 PUSH4 0x9BC33A7 EQ PUSH2 0x121 JUMPI DUP1 PUSH4 0x115CBAF5 EQ PUSH2 0x14C JUMPI DUP1 PUSH4 0x166C13DB EQ PUSH2 0x177 JUMPI JUMPDEST PUSH1 0x0 DUP1 REVERT JUMPDEST CALLVALUE DUP1 ISZERO PUSH2 0x104 JUMPI PUSH1 0x0 DUP1 REVERT JUMPDEST POP PUSH2 0x11F PUSH1 0x4 DUP1 CALLDATASIZE SUB DUP2 ADD SWAP1 PUSH2 0x11A SWAP2 SWAP1 PUSH2 0x1113 JUMP JUMPDEST PUSH2 0x3B8 JUMP JUMPDEST STOP JUMPDEST CALLVALUE DUP1 ISZERO PUSH2 0x12D JUMPI PUSH1 0x0 DUP1 REVERT JUMPDEST POP PUSH2 0x136 PUSH2 0x5D9 JUMP JUMPDEST PUSH1 0x40 MLOAD PUSH2 0x143 SWAP2 SWAP1 PUSH2 0x1159 JUMP JUMPDEST PUSH1 0x40 MLOAD DUP1 SWAP2 SUB SWAP1 RETURN JUMPDEST CALLVALUE DUP1 ISZERO PUSH2 0x158 JUMPI PUSH1 0x0 DUP1 REVERT JUMPDEST POP PUSH2 0x161 PUSH2 0x601 JUMP JUMPDEST PUSH1 0x40 MLOAD PUSH2 0x16E SWAP2 SWAP1 PUSH2 0x11EB JUMP JUMPDEST PUSH1 0x40 MLOAD DUP1 SWAP2 SUB SWAP1 RETURN JUMPDEST CALLVALUE DUP1 ISZERO PUSH2 0x183 JUMPI PUSH1 0x0 DUP1 REVERT JUMPDEST POP PUSH2 0x18C PUSH2 0x618 JUMP JUMPDEST PUSH1 0x40 MLOAD PUSH2 0x199 SWAP2 SWAP1 PUSH2 0x1302 JUMP JUMPDEST PUSH1 0x40 MLOAD DUP1 SWAP2 SUB SWAP1 RETURN JUMPDEST CALLVALUE DUP1 ISZERO PUSH2 0x1AE JUMPI PUSH1 0x0 DUP1 REVERT JUMPDEST POP PUSH2 0x1C9 PUSH1 0x4 DUP1 CALLDATASIZE SUB DUP2 ADD SWAP1 PUSH2 0x1C4 SWAP2 SWAP1 PUSH2 0x14A9 JUMP JUMPDEST PUSH2 0x6D7 JUMP JUMPDEST STOP JUMPDEST PUSH2 0x1E5 PUSH1 0x4 DUP1 CALLDATASIZE SUB DUP2 ADD SWAP1 PUSH2 0x1E0 SWAP2 SWAP1 PUSH2 0x1505 JUMP JUMPDEST PUSH2 0x797 JUMP JUMPDEST STOP JUMPDEST CALLVALUE DUP1 ISZERO PUSH2 0x1F3 JUMPI PUSH1 0x0 DUP1 REVERT JUMPDEST POP PUSH2 0x20E PUSH1 0x4 DUP1 CALLDATASIZE SUB DUP2 ADD SWAP1 PUSH2 0x209 SWAP2 SWAP1 PUSH2 0x158D JUMP JUMPDEST PUSH2 0x9DA JUMP JUMPDEST STOP JUMPDEST CALLVALUE DUP1 ISZERO PUSH2 0x21C JUMPI PUSH1 0x0 DUP1 REVERT JUMPDEST POP PUSH2 0x225 PUSH2 0xBCB JUMP JUMPDEST PUSH1 0x40 MLOAD PUSH2 0x232 SWAP2 SWAP1 PUSH2 0x15E9 JUMP JUMPDEST PUSH1 0x40 MLOAD DUP1 SWAP2 SUB SWAP1 RETURN JUMPDEST CALLVALUE DUP1 ISZERO PUSH2 0x247 JUMPI PUSH1 0x0 DUP1 REVERT JUMPDEST POP PUSH2 0x250 PUSH2 0xBF5 JUMP JUMPDEST PUSH1 0x40 MLOAD PUSH2 0x25D SWAP2 SWAP1 PUSH2 0x1159 JUMP JUMPDEST PUSH1 0x40 MLOAD DUP1 SWAP2 SUB SWAP1 RETURN JUMPDEST CALLVALUE DUP1 ISZERO PUSH2 0x272 JUMPI PUSH1 0x0 DUP1 REVERT JUMPDEST POP PUSH2 0x27B PUSH2 0xC04 JUMP JUMPDEST PUSH1 0x40 MLOAD PUSH2 0x288 SWAP2 SWAP1 PUSH2 0x1159 JUMP JUMPDEST PUSH1 0x40 MLOAD DUP1 SWAP2 SUB SWAP1 RETURN JUMPDEST CALLVALUE DUP1 ISZERO PUSH2 0x29D JUMPI PUSH1 0x0 DUP1 REVERT JUMPDEST POP PUSH2 0x2A6 PUSH2 0xC0E JUMP JUMPDEST PUSH1 0x40 MLOAD PUSH2 0x2B3 SWAP2 SWAP1 PUSH2 0x1159 JUMP JUMPDEST PUSH1 0x40 MLOAD DUP1 SWAP2 SUB SWAP1 RETURN JUMPDEST CALLVALUE DUP1 ISZERO PUSH2 0x2C8 JUMPI PUSH1 0x0 DUP1 REVERT JUMPDEST POP PUSH2 0x2E3 PUSH1 0x4 DUP1 CALLDATASIZE SUB DUP2 ADD SWAP1 PUSH2 0x2DE SWAP2 SWAP1 PUSH2 0x16B9 JUMP JUMPDEST PUSH2 0xC1B JUMP JUMPDEST PUSH1 0x40 MLOAD PUSH2 0x2F1 SWAP3 SWAP2 SWAP1 PUSH2 0x179C JUMP JUMPDEST PUSH1 0x40 MLOAD DUP1 SWAP2 SUB SWAP1 RETURN JUMPDEST CALLVALUE DUP1 ISZERO PUSH2 0x306 JUMPI PUSH1 0x0 DUP1 REVERT JUMPDEST POP PUSH2 0x30F PUSH2 0xD03 JUMP JUMPDEST PUSH1 0x40 MLOAD PUSH2 0x31C SWAP2 SWAP1 PUSH2 0x1159 JUMP JUMPDEST PUSH1 0x40 MLOAD DUP1 SWAP2 SUB SWAP1 RETURN JUMPDEST CALLVALUE DUP1 ISZERO PUSH2 0x331 JUMPI PUSH1 0x0 DUP1 REVERT JUMPDEST POP PUSH2 0x33A PUSH2 0xD2B JUMP JUMPDEST PUSH1 0x40 MLOAD PUSH2 0x347 SWAP2 SWAP1 PUSH2 0x1159 JUMP JUMPDEST PUSH1 0x40 MLOAD DUP1 SWAP2 SUB SWAP1 RETURN JUMPDEST CALLVALUE DUP1 ISZERO PUSH2 0x35C JUMPI PUSH1 0x0 DUP1 REVERT JUMPDEST POP PUSH2 0x377 PUSH1 0x4 DUP1 CALLDATASIZE SUB DUP2 ADD SWAP1 PUSH2 0x372 SWAP2 SWAP1 PUSH2 0x1505 JUMP JUMPDEST PUSH2 0xD34 JUMP JUMPDEST PUSH1 0x40 MLOAD PUSH2 0x384 SWAP2 SWAP1 PUSH2 0x15E9 JUMP JUMPDEST PUSH1 0x40 MLOAD DUP1 SWAP2 SUB SWAP1 RETURN JUMPDEST CALLVALUE DUP1 ISZERO PUSH2 0x399 JUMPI PUSH1 0x0 DUP1 REVERT JUMPDEST POP PUSH2 0x3A2 PUSH2 0xD7C JUMP JUMPDEST PUSH1 0x40 MLOAD PUSH2 0x3AF SWAP2 SWAP1 PUSH2 0x1159 JUMP JUMPDEST PUSH1 0x40 MLOAD DUP1 SWAP2 SUB SWAP1 RETURN JUMPDEST PUSH1 0x0 PUSH1 0x6 DUP1 SLOAD DUP1 PUSH1 0x20 MUL PUSH1 0x20 ADD PUSH1 0x40 MLOAD SWAP1 DUP2 ADD PUSH1 0x40 MSTORE DUP1 SWAP3 SWAP2 SWAP1 DUP2 DUP2 MSTORE PUSH1 0x20 ADD PUSH1 0x0 SWAP1 JUMPDEST DUP3 DUP3 LT ISZERO PUSH2 0x46E JUMPI DUP4 DUP3 SWAP1 PUSH1 0x0 MSTORE PUSH1 0x20 PUSH1 0x0 KECCAK256 SWAP1 PUSH1 0x2 MUL ADD PUSH1 0x40 MLOAD DUP1 PUSH1 0x40 ADD PUSH1 0x40 MSTORE SWAP1 DUP2 PUSH1 0x0 DUP3 ADD PUSH1 0x0 SWAP1 SLOAD SWAP1 PUSH2 0x100 EXP SWAP1 DIV PUSH20 0xFFFFFFFFFFFFFFFFFFFFFFFFFFFFFFFFFFFFFFFF AND PUSH20 0xFFFFFFFFFFFFFFFFFFFFFFFFFFFFFFFFFFFFFFFF AND PUSH20 0xFFFFFFFFFFFFFFFFFFFFFFFFFFFFFFFFFFFFFFFF AND DUP2 MSTORE PUSH1 0x20 ADD PUSH1 0x1 DUP3 ADD SLOAD DUP2 MSTORE POP POP DUP2 MSTORE PUSH1 0x20 ADD SWAP1 PUSH1 0x1 ADD SWAP1 PUSH2 0x3DC JUMP JUMPDEST POP POP POP POP SWAP1 POP PUSH1 0x0 JUMPDEST DUP2 MLOAD DUP2 LT ISZERO PUSH2 0x5D4 JUMPI DUP3 PUSH20 0xFFFFFFFFFFFFFFFFFFFFFFFFFFFFFFFFFFFFFFFF AND DUP3 DUP3 DUP2 MLOAD DUP2 LT PUSH2 0x4AA JUMPI PUSH2 0x4A9 PUSH2 0x17CC JUMP JUMPDEST JUMPDEST PUSH1 0x20 MUL PUSH1 0x20 ADD ADD MLOAD PUSH1 0x0 ADD MLOAD PUSH20 0xFFFFFFFFFFFFFFFFFFFFFFFFFFFFFFFFFFFFFFFF AND SUB PUSH2 0x5C1 JUMPI PUSH1 0x0 DUP3 DUP3 DUP2 MLOAD DUP2 LT PUSH2 0x4E6 JUMPI PUSH2 0x4E5 PUSH2 0x17CC JUMP JUMPDEST JUMPDEST PUSH1 0x20 MUL PUSH1 0x20 ADD ADD MLOAD PUSH1 0x20 ADD MLOAD SWAP1 POP PUSH1 0x6 DUP3 DUP2 SLOAD DUP2 LT PUSH2 0x508 JUMPI PUSH2 0x507 PUSH2 0x17CC JUMP JUMPDEST JUMPDEST SWAP1 PUSH1 0x0 MSTORE PUSH1 0x20 PUSH1 0x0 KECCAK256 SWAP1 PUSH1 0x2 MUL ADD PUSH1 0x0 DUP1 DUP3 ADD PUSH1 0x0 PUSH2 0x100 EXP DUP2 SLOAD SWAP1 PUSH20 0xFFFFFFFFFFFFFFFFFFFFFFFFFFFFFFFFFFFFFFFF MUL NOT AND SWAP1 SSTORE PUSH1 0x1 DUP3 ADD PUSH1 0x0 SWAP1 SSTORE POP POP PUSH1 0x0 DUP5 PUSH20 0xFFFFFFFFFFFFFFFFFFFFFFFFFFFFFFFFFFFFFFFF AND DUP3 PUSH1 0x40 MLOAD PUSH2 0x56E SWAP1 PUSH2 0x182C JUMP JUMPDEST PUSH1 0x0 PUSH1 0x40 MLOAD DUP1 DUP4 SUB DUP2 DUP6 DUP8 GAS CALL SWAP3 POP POP POP RETURNDATASIZE DUP1 PUSH1 0x0 DUP2 EQ PUSH2 0x5AB JUMPI PUSH1 0x40 MLOAD SWAP2 POP PUSH1 0x1F NOT PUSH1 0x3F RETURNDATASIZE ADD AND DUP3 ADD PUSH1 0x40 MSTORE RETURNDATASIZE DUP3 MSTORE RETURNDATASIZE PUSH1 0x0 PUSH1 0x20 DUP5 ADD RETURNDATACOPY PUSH2 0x5B0 JUMP JUMPDEST PUSH1 0x60 SWAP2 POP JUMPDEST POP POP SWAP1 POP DUP1 PUSH2 0x5BE JUMPI PUSH1 0x0 DUP1 REVERT JUMPDEST POP POP JUMPDEST DUP1 DUP1 PUSH2 0x5CC SWAP1 PUSH2 0x1870 JUMP JUMPDEST SWAP2 POP POP PUSH2 0x477 JUMP JUMPDEST POP POP POP JUMP JUMPDEST PUSH1 0x0 PUSH32 0x0 SWAP1 POP SWAP1 JUMP JUMPDEST PUSH1 0x0 PUSH1 0x3 PUSH1 0x0 SWAP1 SLOAD SWAP1 PUSH2 0x100 EXP SWAP1 DIV PUSH1 0xFF AND SWAP1 POP SWAP1 JUMP JUMPDEST PUSH1 0x60 PUSH1 0x6 DUP1 SLOAD DUP1 PUSH1 0x20 MUL PUSH1 0x20 ADD PUSH1 0x40 MLOAD SWAP1 DUP2 ADD PUSH1 0x40 MSTORE DUP1 SWAP3 SWAP2 SWAP1 DUP2 DUP2 MSTORE PUSH1 0x20 ADD PUSH1 0x0 SWAP1 JUMPDEST DUP3 DUP3 LT ISZERO PUSH2 0x6CE JUMPI DUP4 DUP3 SWAP1 PUSH1 0x0 MSTORE PUSH1 0x20 PUSH1 0x0 KECCAK256 SWAP1 PUSH1 0x2 MUL ADD PUSH1 0x40 MLOAD DUP1 PUSH1 0x40 ADD PUSH1 0x40 MSTORE SWAP1 DUP2 PUSH1 0x0 DUP3 ADD PUSH1 0x0 SWAP1 SLOAD SWAP1 PUSH2 0x100 EXP SWAP1 DIV PUSH20 0xFFFFFFFFFFFFFFFFFFFFFFFFFFFFFFFFFFFFFFFF AND PUSH20 0xFFFFFFFFFFFFFFFFFFFFFFFFFFFFFFFFFFFFFFFF AND PUSH20 0xFFFFFFFFFFFFFFFFFFFFFFFFFFFFFFFFFFFFFFFF AND DUP2 MSTORE PUSH1 0x20 ADD PUSH1 0x1 DUP3 ADD SLOAD DUP2 MSTORE POP POP DUP2 MSTORE PUSH1 0x20 ADD SWAP1 PUSH1 0x1 ADD SWAP1 PUSH2 0x63C JUMP JUMPDEST POP POP POP POP SWAP1 POP SWAP1 JUMP JUMPDEST PUSH32 0x0 PUSH20 0xFFFFFFFFFFFFFFFFFFFFFFFFFFFFFFFFFFFFFFFF AND CALLER PUSH20 0xFFFFFFFFFFFFFFFFFFFFFFFFFFFFFFFFFFFFFFFF AND EQ PUSH2 0x789 JUMPI CALLER PUSH32 0x0 PUSH1 0x40 MLOAD PUSH32 0x1CF993F400000000000000000000000000000000000000000000000000000000 DUP2 MSTORE PUSH1 0x4 ADD PUSH2 0x780 SWAP3 SWAP2 SWAP1 PUSH2 0x18B8 JUMP JUMPDEST PUSH1 0x40 MLOAD DUP1 SWAP2 SUB SWAP1 REVERT JUMPDEST PUSH2 0x793 DUP3 DUP3 PUSH2 0xD89 JUMP JUMPDEST POP POP JUMP JUMPDEST PUSH32 0x0 CALLVALUE LT ISZERO PUSH2 0x7F1 JUMPI PUSH1 0x40 MLOAD PUSH32 0x3038C00A00000000000000000000000000000000000000000000000000000000 DUP2 MSTORE PUSH1 0x4 ADD PUSH1 0x40 MLOAD DUP1 SWAP2 SUB SWAP1 REVERT JUMPDEST PUSH1 0x0 PUSH1 0x1 DUP2 GT ISZERO PUSH2 0x805 JUMPI PUSH2 0x804 PUSH2 0x1174 JUMP JUMPDEST JUMPDEST PUSH1 0x3 PUSH1 0x0 SWAP1 SLOAD SWAP1 PUSH2 0x100 EXP SWAP1 DIV PUSH1 0xFF AND PUSH1 0x1 DUP2 GT ISZERO PUSH2 0x827 JUMPI PUSH2 0x826 PUSH2 0x1174 JUMP JUMPDEST JUMPDEST EQ PUSH2 0x85E JUMPI PUSH1 0x40 MLOAD PUSH32 0xD24A271400000000000000000000000000000000000000000000000000000000 DUP2 MSTORE PUSH1 0x4 ADD PUSH1 0x40 MLOAD DUP1 SWAP2 SUB SWAP1 REVERT JUMPDEST PUSH1 0x0 PUSH1 0x40 MLOAD DUP1 PUSH1 0x40 ADD PUSH1 0x40 MSTORE DUP1 DUP4 DUP2 MSTORE PUSH1 0x20 ADD CALLER PUSH20 0xFFFFFFFFFFFFFFFFFFFFFFFFFFFFFFFFFFFFFFFF AND DUP2 MSTORE POP SWAP1 POP PUSH1 0x5 PUSH1 0x0 PUSH1 0x4 SLOAD DUP2 MSTORE PUSH1 0x20 ADD SWAP1 DUP2 MSTORE PUSH1 0x20 ADD PUSH1 0x0 KECCAK256 PUSH1 0x0 DUP4 DUP2 MSTORE PUSH1 0x20 ADD SWAP1 DUP2 MSTORE PUSH1 0x20 ADD PUSH1 0x0 KECCAK256 DUP2 SWAP1 DUP1 PUSH1 0x1 DUP2 SLOAD ADD DUP1 DUP3 SSTORE DUP1 SWAP2 POP POP PUSH1 0x1 SWAP1 SUB SWAP1 PUSH1 0x0 MSTORE PUSH1 0x20 PUSH1 0x0 KECCAK256 SWAP1 PUSH1 0x2 MUL ADD PUSH1 0x0 SWAP1 SWAP2 SWAP1 SWAP2 SWAP1 SWAP2 POP PUSH1 0x0 DUP3 ADD MLOAD DUP2 PUSH1 0x0 ADD SSTORE PUSH1 0x20 DUP3 ADD MLOAD DUP2 PUSH1 0x1 ADD PUSH1 0x0 PUSH2 0x100 EXP DUP2 SLOAD DUP2 PUSH20 0xFFFFFFFFFFFFFFFFFFFFFFFFFFFFFFFFFFFFFFFF MUL NOT AND SWAP1 DUP4 PUSH20 0xFFFFFFFFFFFFFFFFFFFFFFFFFFFFFFFFFFFFFFFF AND MUL OR SWAP1 SSTORE POP POP POP PUSH1 0x2 CALLER SWAP1 DUP1 PUSH1 0x1 DUP2 SLOAD ADD DUP1 DUP3 SSTORE DUP1 SWAP2 POP POP PUSH1 0x1 SWAP1 SUB SWAP1 PUSH1 0x0 MSTORE PUSH1 0x20 PUSH1 0x0 KECCAK256 ADD PUSH1 0x0 SWAP1 SWAP2 SWAP1 SWAP2 SWAP1 SWAP2 PUSH2 0x100 EXP DUP2 SLOAD DUP2 PUSH20 0xFFFFFFFFFFFFFFFFFFFFFFFFFFFFFFFFFFFFFFFF MUL NOT AND SWAP1 DUP4 PUSH20 0xFFFFFFFFFFFFFFFFFFFFFFFFFFFFFFFFFFFFFFFF AND MUL OR SWAP1 SSTORE POP CALLER PUSH20 0xFFFFFFFFFFFFFFFFFFFFFFFFFFFFFFFFFFFFFFFF AND PUSH32 0x805E1D667BDDB8A95F0F09880CF94F403FB596CE79928D9F29B74203BA284D4 PUSH1 0x40 MLOAD PUSH1 0x40 MLOAD DUP1 SWAP2 SUB SWAP1 LOG2 POP POP JUMP JUMPDEST PUSH1 0x0 PUSH2 0x9F4 PUSH1 0x40 MLOAD DUP1 PUSH1 0x20 ADD PUSH1 0x40 MSTORE DUP1 PUSH1 0x0 DUP2 MSTORE POP PUSH2 0xC1B JUMP JUMPDEST POP SWAP1 POP DUP1 PUSH2 0xA63 JUMPI SELFBALANCE PUSH1 0x2 DUP1 SLOAD SWAP1 POP PUSH1 0x3 PUSH1 0x0 SWAP1 SLOAD SWAP1 PUSH2 0x100 EXP SWAP1 DIV PUSH1 0xFF AND PUSH1 0x1 DUP2 GT ISZERO PUSH2 0xA25 JUMPI PUSH2 0xA24 PUSH2 0x1174 JUMP JUMPDEST JUMPDEST PUSH1 0x40 MLOAD PUSH32 0x584327AA00000000000000000000000000000000000000000000000000000000 DUP2 MSTORE PUSH1 0x4 ADD PUSH2 0xA5A SWAP4 SWAP3 SWAP2 SWAP1 PUSH2 0x18E1 JUMP JUMPDEST PUSH1 0x40 MLOAD DUP1 SWAP2 SUB SWAP1 REVERT JUMPDEST PUSH1 0x1 PUSH1 0x3 PUSH1 0x0 PUSH2 0x100 EXP DUP2 SLOAD DUP2 PUSH1 0xFF MUL NOT AND SWAP1 DUP4 PUSH1 0x1 DUP2 GT ISZERO PUSH2 0xA89 JUMPI PUSH2 0xA88 PUSH2 0x1174 JUMP JUMPDEST JUMPDEST MUL OR SWAP1 SSTORE POP PUSH1 0x0 PUSH32 0x0 PUSH20 0xFFFFFFFFFFFFFFFFFFFFFFFFFFFFFFFFFFFFFFFF AND PUSH4 0x5D3B1D30 PUSH32 0x0 PUSH32 0x0 PUSH1 0x3 PUSH32 0x0 PUSH1 0x1 PUSH1 0x40 MLOAD DUP7 PUSH4 0xFFFFFFFF AND PUSH1 0xE0 SHL DUP2 MSTORE PUSH1 0x4 ADD PUSH2 0xB53 SWAP6 SWAP5 SWAP4 SWAP3 SWAP2 SWAP1 PUSH2 0x1990 JUMP JUMPDEST PUSH1 0x20 PUSH1 0x40 MLOAD DUP1 DUP4 SUB DUP2 PUSH1 0x0 DUP8 GAS CALL ISZERO DUP1 ISZERO PUSH2 0xB72 JUMPI RETURNDATASIZE PUSH1 0x0 DUP1 RETURNDATACOPY RETURNDATASIZE PUSH1 0x0 REVERT JUMPDEST POP POP POP POP PUSH1 0x40 MLOAD RETURNDATASIZE PUSH1 0x1F NOT PUSH1 0x1F DUP3 ADD AND DUP3 ADD DUP1 PUSH1 0x40 MSTORE POP DUP2 ADD SWAP1 PUSH2 0xB96 SWAP2 SWAP1 PUSH2 0x19F8 JUMP JUMPDEST SWAP1 POP DUP1 PUSH32 0xCD6E45C8998311CAB7E9D4385596CAC867E20A0587194B954FA3A731C93CE78B PUSH1 0x40 MLOAD PUSH1 0x40 MLOAD DUP1 SWAP2 SUB SWAP1 LOG2 POP POP POP POP JUMP JUMPDEST PUSH1 0x0 PUSH1 0x1 PUSH1 0x0 SWAP1 SLOAD SWAP1 PUSH2 0x100 EXP SWAP1 DIV PUSH20 0xFFFFFFFFFFFFFFFFFFFFFFFFFFFFFFFFFFFFFFFF AND SWAP1 POP SWAP1 JUMP JUMPDEST PUSH1 0x0 PUSH1 0x1 PUSH4 0xFFFFFFFF AND SWAP1 POP SWAP1 JUMP JUMPDEST PUSH1 0x0 PUSH1 0x4 SLOAD SWAP1 POP SWAP1 JUMP JUMPDEST PUSH1 0x0 PUSH1 0x3 PUSH2 0xFFFF AND SWAP1 POP SWAP1 JUMP JUMPDEST PUSH1 0x0 PUSH1 0x60 PUSH1 0x0 PUSH1 0x3 PUSH1 0x0 SWAP1 SLOAD SWAP1 PUSH2 0x100 EXP SWAP1 DIV PUSH1 0xFF AND PUSH1 0x1 DUP2 GT ISZERO PUSH2 0xC43 JUMPI PUSH2 0xC42 PUSH2 0x1174 JUMP JUMPDEST JUMPDEST PUSH1 0x0 PUSH1 0x1 DUP2 GT ISZERO PUSH2 0xC57 JUMPI PUSH2 0xC56 PUSH2 0x1174 JUMP JUMPDEST JUMPDEST EQ SWAP1 POP PUSH1 0x0 PUSH32 0x0 PUSH1 0x0 SLOAD TIMESTAMP PUSH2 0xC8B SWAP2 SWAP1 PUSH2 0x1A25 JUMP JUMPDEST GT SWAP1 POP PUSH1 0x0 DUP1 PUSH1 0x2 DUP1 SLOAD SWAP1 POP GT SWAP1 POP PUSH1 0x0 DUP1 SELFBALANCE GT SWAP1 POP DUP3 DUP1 ISZERO PUSH2 0xCAB JUMPI POP DUP4 JUMPDEST DUP1 ISZERO PUSH2 0xCB4 JUMPI POP DUP1 JUMPDEST DUP1 ISZERO PUSH2 0xCBD JUMPI POP DUP2 JUMPDEST SWAP6 POP DUP6 PUSH1 0x40 MLOAD DUP1 PUSH1 0x40 ADD PUSH1 0x40 MSTORE DUP1 PUSH1 0x3 DUP2 MSTORE PUSH1 0x20 ADD PUSH32 0x3078300000000000000000000000000000000000000000000000000000000000 DUP2 MSTORE POP SWAP6 POP SWAP6 POP POP POP POP POP SWAP2 POP SWAP2 JUMP JUMPDEST PUSH1 0x0 PUSH32 0x0 SWAP1 POP SWAP1 JUMP JUMPDEST PUSH1 0x0 DUP1 SLOAD SWAP1 POP SWAP1 JUMP JUMPDEST PUSH1 0x0 PUSH1 0x2 DUP3 DUP2 SLOAD DUP2 LT PUSH2 0xD4A JUMPI PUSH2 0xD49 PUSH2 0x17CC JUMP JUMPDEST JUMPDEST SWAP1 PUSH1 0x0 MSTORE PUSH1 0x20 PUSH1 0x0 KECCAK256 ADD PUSH1 0x0 SWAP1 SLOAD SWAP1 PUSH2 0x100 EXP SWAP1 DIV PUSH20 0xFFFFFFFFFFFFFFFFFFFFFFFFFFFFFFFFFFFFFFFF AND SWAP1 POP SWAP2 SWAP1 POP JUMP JUMPDEST PUSH1 0x0 PUSH1 0x2 DUP1 SLOAD SWAP1 POP SWAP1 POP SWAP1 JUMP JUMPDEST PUSH1 0x0 PUSH1 0x64 DUP3 PUSH1 0x0 DUP2 MLOAD DUP2 LT PUSH2 0xDA1 JUMPI PUSH2 0xDA0 PUSH2 0x17CC JUMP JUMPDEST JUMPDEST PUSH1 0x20 MUL PUSH1 0x20 ADD ADD MLOAD PUSH2 0xDB3 SWAP2 SWAP1 PUSH2 0x1A88 JUMP JUMPDEST SWAP1 POP PUSH1 0x6 PUSH1 0x0 PUSH2 0xDC3 SWAP2 SWAP1 PUSH2 0x1037 JUMP JUMPDEST PUSH1 0x0 PUSH1 0x5 PUSH1 0x0 PUSH1 0x4 SLOAD DUP2 MSTORE PUSH1 0x20 ADD SWAP1 DUP2 MSTORE PUSH1 0x20 ADD PUSH1 0x0 KECCAK256 PUSH1 0x0 DUP4 DUP2 MSTORE PUSH1 0x20 ADD SWAP1 DUP2 MSTORE PUSH1 0x20 ADD PUSH1 0x0 KECCAK256 DUP1 SLOAD DUP1 PUSH1 0x20 MUL PUSH1 0x20 ADD PUSH1 0x40 MLOAD SWAP1 DUP2 ADD PUSH1 0x40 MSTORE DUP1 SWAP3 SWAP2 SWAP1 DUP2 DUP2 MSTORE PUSH1 0x20 ADD PUSH1 0x0 SWAP1 JUMPDEST DUP3 DUP3 LT ISZERO PUSH2 0xE9D JUMPI DUP4 DUP3 SWAP1 PUSH1 0x0 MSTORE PUSH1 0x20 PUSH1 0x0 KECCAK256 SWAP1 PUSH1 0x2 MUL ADD PUSH1 0x40 MLOAD DUP1 PUSH1 0x40 ADD PUSH1 0x40 MSTORE SWAP1 DUP2 PUSH1 0x0 DUP3 ADD SLOAD DUP2 MSTORE PUSH1 0x20 ADD PUSH1 0x1 DUP3 ADD PUSH1 0x0 SWAP1 SLOAD SWAP1 PUSH2 0x100 EXP SWAP1 DIV PUSH20 0xFFFFFFFFFFFFFFFFFFFFFFFFFFFFFFFFFFFFFFFF AND PUSH20 0xFFFFFFFFFFFFFFFFFFFFFFFFFFFFFFFFFFFFFFFF AND PUSH20 0xFFFFFFFFFFFFFFFFFFFFFFFFFFFFFFFFFFFFFFFF AND DUP2 MSTORE POP POP DUP2 MSTORE PUSH1 0x20 ADD SWAP1 PUSH1 0x1 ADD SWAP1 PUSH2 0xE0B JUMP JUMPDEST POP POP POP POP SWAP1 POP PUSH1 0x0 DUP2 MLOAD SELFBALANCE PUSH2 0xEB2 SWAP2 SWAP1 PUSH2 0x1AB9 JUMP JUMPDEST SWAP1 POP PUSH1 0x0 JUMPDEST DUP3 MLOAD DUP2 LT ISZERO PUSH2 0xFA0 JUMPI PUSH1 0x0 PUSH1 0x40 MLOAD DUP1 PUSH1 0x40 ADD PUSH1 0x40 MSTORE DUP1 DUP6 DUP5 DUP2 MLOAD DUP2 LT PUSH2 0xEE0 JUMPI PUSH2 0xEDF PUSH2 0x17CC JUMP JUMPDEST JUMPDEST PUSH1 0x20 MUL PUSH1 0x20 ADD ADD MLOAD PUSH1 0x20 ADD MLOAD PUSH20 0xFFFFFFFFFFFFFFFFFFFFFFFFFFFFFFFFFFFFFFFF AND DUP2 MSTORE PUSH1 0x20 ADD DUP5 DUP2 MSTORE POP SWAP1 POP PUSH1 0x6 DUP2 SWAP1 DUP1 PUSH1 0x1 DUP2 SLOAD ADD DUP1 DUP3 SSTORE DUP1 SWAP2 POP POP PUSH1 0x1 SWAP1 SUB SWAP1 PUSH1 0x0 MSTORE PUSH1 0x20 PUSH1 0x0 KECCAK256 SWAP1 PUSH1 0x2 MUL ADD PUSH1 0x0 SWAP1 SWAP2 SWAP1 SWAP2 SWAP1 SWAP2 POP PUSH1 0x0 DUP3 ADD MLOAD DUP2 PUSH1 0x0 ADD PUSH1 0x0 PUSH2 0x100 EXP DUP2 SLOAD DUP2 PUSH20 0xFFFFFFFFFFFFFFFFFFFFFFFFFFFFFFFFFFFFFFFF MUL NOT AND SWAP1 DUP4 PUSH20 0xFFFFFFFFFFFFFFFFFFFFFFFFFFFFFFFFFFFFFFFF AND MUL OR SWAP1 SSTORE POP PUSH1 0x20 DUP3 ADD MLOAD DUP2 PUSH1 0x1 ADD SSTORE POP POP POP DUP1 DUP1 PUSH2 0xF98 SWAP1 PUSH2 0x1870 JUMP JUMPDEST SWAP2 POP POP PUSH2 0xEB7 JUMP JUMPDEST POP PUSH1 0x1 PUSH1 0x4 PUSH1 0x0 DUP3 DUP3 SLOAD PUSH2 0xFB4 SWAP2 SWAP1 PUSH2 0x1AEA JUMP JUMPDEST SWAP3 POP POP DUP2 SWAP1 SSTORE POP PUSH1 0x0 PUSH1 0x3 PUSH1 0x0 PUSH2 0x100 EXP DUP2 SLOAD DUP2 PUSH1 0xFF MUL NOT AND SWAP1 DUP4 PUSH1 0x1 DUP2 GT ISZERO PUSH2 0xFE1 JUMPI PUSH2 0xFE0 PUSH2 0x1174 JUMP JUMPDEST JUMPDEST MUL OR SWAP1 SSTORE POP TIMESTAMP PUSH1 0x0 DUP2 SWAP1 SSTORE POP PUSH1 0x6 PUSH1 0x40 MLOAD PUSH2 0xFFC SWAP2 SWAP1 PUSH2 0x1CC9 JUMP JUMPDEST PUSH1 0x40 MLOAD DUP1 SWAP2 SUB SWAP1 KECCAK256 PUSH32 0x2EF0928CB344C60A4C10AB3BCDEF9A6E1A4D94A2006D1582BE17CFDD799B6E27 PUSH1 0x40 MLOAD PUSH1 0x40 MLOAD DUP1 SWAP2 SUB SWAP1 LOG2 POP POP POP POP POP JUMP JUMPDEST POP DUP1 SLOAD PUSH1 0x0 DUP3 SSTORE PUSH1 0x2 MUL SWAP1 PUSH1 0x0 MSTORE PUSH1 0x20 PUSH1 0x0 KECCAK256 SWAP1 DUP2 ADD SWAP1 PUSH2 0x1058 SWAP2 SWAP1 PUSH2 0x105B JUMP JUMPDEST POP JUMP JUMPDEST JUMPDEST DUP1 DUP3 GT ISZERO PUSH2 0x109D JUMPI PUSH1 0x0 DUP1 DUP3 ADD PUSH1 0x0 PUSH2 0x100 EXP DUP2 SLOAD SWAP1 PUSH20 0xFFFFFFFFFFFFFFFFFFFFFFFFFFFFFFFFFFFFFFFF MUL NOT AND SWAP1 SSTORE PUSH1 0x1 DUP3 ADD PUSH1 0x0 SWAP1 SSTORE POP PUSH1 0x2 ADD PUSH2 0x105C JUMP JUMPDEST POP SWAP1 JUMP JUMPDEST PUSH1 0x0 PUSH1 0x40 MLOAD SWAP1 POP SWAP1 JUMP JUMPDEST PUSH1 0x0 DUP1 REVERT JUMPDEST PUSH1 0x0 DUP1 REVERT JUMPDEST PUSH1 0x0 PUSH20 0xFFFFFFFFFFFFFFFFFFFFFFFFFFFFFFFFFFFFFFFF DUP3 AND SWAP1 POP SWAP2 SWAP1 POP JUMP JUMPDEST PUSH1 0x0 PUSH2 0x10E0 DUP3 PUSH2 0x10B5 JUMP JUMPDEST SWAP1 POP SWAP2 SWAP1 POP JUMP JUMPDEST PUSH2 0x10F0 DUP2 PUSH2 0x10D5 JUMP JUMPDEST DUP2 EQ PUSH2 0x10FB JUMPI PUSH1 0x0 DUP1 REVERT JUMPDEST POP JUMP JUMPDEST PUSH1 0x0 DUP2 CALLDATALOAD SWAP1 POP PUSH2 0x110D DUP2 PUSH2 0x10E7 JUMP JUMPDEST SWAP3 SWAP2 POP POP JUMP JUMPDEST PUSH1 0x0 PUSH1 0x20 DUP3 DUP5 SUB SLT ISZERO PUSH2 0x1129 JUMPI PUSH2 0x1128 PUSH2 0x10AB JUMP JUMPDEST JUMPDEST PUSH1 0x0 PUSH2 0x1137 DUP5 DUP3 DUP6 ADD PUSH2 0x10FE JUMP JUMPDEST SWAP2 POP POP SWAP3 SWAP2 POP POP JUMP JUMPDEST PUSH1 0x0 DUP2 SWAP1 POP SWAP2 SWAP1 POP JUMP JUMPDEST PUSH2 0x1153 DUP2 PUSH2 0x1140 JUMP JUMPDEST DUP3 MSTORE POP POP JUMP JUMPDEST PUSH1 0x0 PUSH1 0x20 DUP3 ADD SWAP1 POP PUSH2 0x116E PUSH1 0x0 DUP4 ADD DUP5 PUSH2 0x114A JUMP JUMPDEST SWAP3 SWAP2 POP POP JUMP JUMPDEST PUSH32 0x4E487B7100000000000000000000000000000000000000000000000000000000 PUSH1 0x0 MSTORE PUSH1 0x21 PUSH1 0x4 MSTORE PUSH1 0x24 PUSH1 0x0 REVERT JUMPDEST PUSH1 0x2 DUP2 LT PUSH2 0x11B4 JUMPI PUSH2 0x11B3 PUSH2 0x1174 JUMP JUMPDEST JUMPDEST POP JUMP JUMPDEST PUSH1 0x0 DUP2 SWAP1 POP PUSH2 0x11C5 DUP3 PUSH2 0x11A3 JUMP JUMPDEST SWAP2 SWAP1 POP JUMP JUMPDEST PUSH1 0x0 PUSH2 0x11D5 DUP3 PUSH2 0x11B7 JUMP JUMPDEST SWAP1 POP SWAP2 SWAP1 POP JUMP JUMPDEST PUSH2 0x11E5 DUP2 PUSH2 0x11CA JUMP JUMPDEST DUP3 MSTORE POP POP JUMP JUMPDEST PUSH1 0x0 PUSH1 0x20 DUP3 ADD SWAP1 POP PUSH2 0x1200 PUSH1 0x0 DUP4 ADD DUP5 PUSH2 0x11DC JUMP JUMPDEST SWAP3 SWAP2 POP POP JUMP JUMPDEST PUSH1 0x0 DUP2 MLOAD SWAP1 POP SWAP2 SWAP1 POP JUMP JUMPDEST PUSH1 0x0 DUP3 DUP3 MSTORE PUSH1 0x20 DUP3 ADD SWAP1 POP SWAP3 SWAP2 POP POP JUMP JUMPDEST PUSH1 0x0 DUP2 SWAP1 POP PUSH1 0x20 DUP3 ADD SWAP1 POP SWAP2 SWAP1 POP JUMP JUMPDEST PUSH2 0x123B DUP2 PUSH2 0x10D5 JUMP JUMPDEST DUP3 MSTORE POP POP JUMP JUMPDEST PUSH2 0x124A DUP2 PUSH2 0x1140 JUMP JUMPDEST DUP3 MSTORE POP POP JUMP JUMPDEST PUSH1 0x40 DUP3 ADD PUSH1 0x0 DUP3 ADD MLOAD PUSH2 0x1266 PUSH1 0x0 DUP6 ADD DUP3 PUSH2 0x1232 JUMP JUMPDEST POP PUSH1 0x20 DUP3 ADD MLOAD PUSH2 0x1279 PUSH1 0x20 DUP6 ADD DUP3 PUSH2 0x1241 JUMP JUMPDEST POP POP POP POP JUMP JUMPDEST PUSH1 0x0 PUSH2 0x128B DUP4 DUP4 PUSH2 0x1250 JUMP JUMPDEST PUSH1 0x40 DUP4 ADD SWAP1 POP SWAP3 SWAP2 POP POP JUMP JUMPDEST PUSH1 0x0 PUSH1 0x20 DUP3 ADD SWAP1 POP SWAP2 SWAP1 POP JUMP JUMPDEST PUSH1 0x0 PUSH2 0x12AF DUP3 PUSH2 0x1206 JUMP JUMPDEST PUSH2 0x12B9 DUP2 DUP6 PUSH2 0x1211 JUMP JUMPDEST SWAP4 POP PUSH2 0x12C4 DUP4 PUSH2 0x1222 JUMP JUMPDEST DUP1 PUSH1 0x0 JUMPDEST DUP4 DUP2 LT ISZERO PUSH2 0x12F5 JUMPI DUP2 MLOAD PUSH2 0x12DC DUP9 DUP3 PUSH2 0x127F JUMP JUMPDEST SWAP8 POP PUSH2 0x12E7 DUP4 PUSH2 0x1297 JUMP JUMPDEST SWAP3 POP POP PUSH1 0x1 DUP2 ADD SWAP1 POP PUSH2 0x12C8 JUMP JUMPDEST POP DUP6 SWAP4 POP POP POP POP SWAP3 SWAP2 POP POP JUMP JUMPDEST PUSH1 0x0 PUSH1 0x20 DUP3 ADD SWAP1 POP DUP2 DUP2 SUB PUSH1 0x0 DUP4 ADD MSTORE PUSH2 0x131C DUP2 DUP5 PUSH2 0x12A4 JUMP JUMPDEST SWAP1 POP SWAP3 SWAP2 POP POP JUMP JUMPDEST PUSH2 0x132D DUP2 PUSH2 0x1140 JUMP JUMPDEST DUP2 EQ PUSH2 0x1338 JUMPI PUSH1 0x0 DUP1 REVERT JUMPDEST POP JUMP JUMPDEST PUSH1 0x0 DUP2 CALLDATALOAD SWAP1 POP PUSH2 0x134A DUP2 PUSH2 0x1324 JUMP JUMPDEST SWAP3 SWAP2 POP POP JUMP JUMPDEST PUSH1 0x0 DUP1 REVERT JUMPDEST PUSH1 0x0 PUSH1 0x1F NOT PUSH1 0x1F DUP4 ADD AND SWAP1 POP SWAP2 SWAP1 POP JUMP JUMPDEST PUSH32 0x4E487B7100000000000000000000000000000000000000000000000000000000 PUSH1 0x0 MSTORE PUSH1 0x41 PUSH1 0x4 MSTORE PUSH1 0x24 PUSH1 0x0 REVERT JUMPDEST PUSH2 0x139E DUP3 PUSH2 0x1355 JUMP JUMPDEST DUP2 ADD DUP2 DUP2 LT PUSH8 0xFFFFFFFFFFFFFFFF DUP3 GT OR ISZERO PUSH2 0x13BD JUMPI PUSH2 0x13BC PUSH2 0x1366 JUMP JUMPDEST JUMPDEST DUP1 PUSH1 0x40 MSTORE POP POP POP JUMP JUMPDEST PUSH1 0x0 PUSH2 0x13D0 PUSH2 0x10A1 JUMP JUMPDEST SWAP1 POP PUSH2 0x13DC DUP3 DUP3 PUSH2 0x1395 JUMP JUMPDEST SWAP2 SWAP1 POP JUMP JUMPDEST PUSH1 0x0 PUSH8 0xFFFFFFFFFFFFFFFF DUP3 GT ISZERO PUSH2 0x13FC JUMPI PUSH2 0x13FB PUSH2 0x1366 JUMP JUMPDEST JUMPDEST PUSH1 0x20 DUP3 MUL SWAP1 POP PUSH1 0x20 DUP2 ADD SWAP1 POP SWAP2 SWAP1 POP JUMP JUMPDEST PUSH1 0x0 DUP1 REVERT JUMPDEST PUSH1 0x0 PUSH2 0x1425 PUSH2 0x1420 DUP5 PUSH2 0x13E1 JUMP JUMPDEST PUSH2 0x13C6 JUMP JUMPDEST SWAP1 POP DUP1 DUP4 DUP3 MSTORE PUSH1 0x20 DUP3 ADD SWAP1 POP PUSH1 0x20 DUP5 MUL DUP4 ADD DUP6 DUP2 GT ISZERO PUSH2 0x1448 JUMPI PUSH2 0x1447 PUSH2 0x140D JUMP JUMPDEST JUMPDEST DUP4 JUMPDEST DUP2 DUP2 LT ISZERO PUSH2 0x1471 JUMPI DUP1 PUSH2 0x145D DUP9 DUP3 PUSH2 0x133B JUMP JUMPDEST DUP5 MSTORE PUSH1 0x20 DUP5 ADD SWAP4 POP POP PUSH1 0x20 DUP2 ADD SWAP1 POP PUSH2 0x144A JUMP JUMPDEST POP POP POP SWAP4 SWAP3 POP POP POP JUMP JUMPDEST PUSH1 0x0 DUP3 PUSH1 0x1F DUP4 ADD SLT PUSH2 0x1490 JUMPI PUSH2 0x148F PUSH2 0x1350 JUMP JUMPDEST JUMPDEST DUP2 CALLDATALOAD PUSH2 0x14A0 DUP5 DUP3 PUSH1 0x20 DUP7 ADD PUSH2 0x1412 JUMP JUMPDEST SWAP2 POP POP SWAP3 SWAP2 POP POP JUMP JUMPDEST PUSH1 0x0 DUP1 PUSH1 0x40 DUP4 DUP6 SUB SLT ISZERO PUSH2 0x14C0 JUMPI PUSH2 0x14BF PUSH2 0x10AB JUMP JUMPDEST JUMPDEST PUSH1 0x0 PUSH2 0x14CE DUP6 DUP3 DUP7 ADD PUSH2 0x133B JUMP JUMPDEST SWAP3 POP POP PUSH1 0x20 DUP4 ADD CALLDATALOAD PUSH8 0xFFFFFFFFFFFFFFFF DUP2 GT ISZERO PUSH2 0x14EF JUMPI PUSH2 0x14EE PUSH2 0x10B0 JUMP JUMPDEST JUMPDEST PUSH2 0x14FB DUP6 DUP3 DUP7 ADD PUSH2 0x147B JUMP JUMPDEST SWAP2 POP POP SWAP3 POP SWAP3 SWAP1 POP JUMP JUMPDEST PUSH1 0x0 PUSH1 0x20 DUP3 DUP5 SUB SLT ISZERO PUSH2 0x151B JUMPI PUSH2 0x151A PUSH2 0x10AB JUMP JUMPDEST JUMPDEST PUSH1 0x0 PUSH2 0x1529 DUP5 DUP3 DUP6 ADD PUSH2 0x133B JUMP JUMPDEST SWAP2 POP POP SWAP3 SWAP2 POP POP JUMP JUMPDEST PUSH1 0x0 DUP1 REVERT JUMPDEST PUSH1 0x0 DUP1 DUP4 PUSH1 0x1F DUP5 ADD SLT PUSH2 0x154D JUMPI PUSH2 0x154C PUSH2 0x1350 JUMP JUMPDEST JUMPDEST DUP3 CALLDATALOAD SWAP1 POP PUSH8 0xFFFFFFFFFFFFFFFF DUP2 GT ISZERO PUSH2 0x156A JUMPI PUSH2 0x1569 PUSH2 0x1532 JUMP JUMPDEST JUMPDEST PUSH1 0x20 DUP4 ADD SWAP2 POP DUP4 PUSH1 0x1 DUP3 MUL DUP4 ADD GT ISZERO PUSH2 0x1586 JUMPI PUSH2 0x1585 PUSH2 0x140D JUMP JUMPDEST JUMPDEST SWAP3 POP SWAP3 SWAP1 POP JUMP JUMPDEST PUSH1 0x0 DUP1 PUSH1 0x20 DUP4 DUP6 SUB SLT ISZERO PUSH2 0x15A4 JUMPI PUSH2 0x15A3 PUSH2 0x10AB JUMP JUMPDEST JUMPDEST PUSH1 0x0 DUP4 ADD CALLDATALOAD PUSH8 0xFFFFFFFFFFFFFFFF DUP2 GT ISZERO PUSH2 0x15C2 JUMPI PUSH2 0x15C1 PUSH2 0x10B0 JUMP JUMPDEST JUMPDEST PUSH2 0x15CE DUP6 DUP3 DUP7 ADD PUSH2 0x1537 JUMP JUMPDEST SWAP3 POP SWAP3 POP POP SWAP3 POP SWAP3 SWAP1 POP JUMP JUMPDEST PUSH2 0x15E3 DUP2 PUSH2 0x10D5 JUMP JUMPDEST DUP3 MSTORE POP POP JUMP JUMPDEST PUSH1 0x0 PUSH1 0x20 DUP3 ADD SWAP1 POP PUSH2 0x15FE PUSH1 0x0 DUP4 ADD DUP5 PUSH2 0x15DA JUMP JUMPDEST SWAP3 SWAP2 POP POP JUMP JUMPDEST PUSH1 0x0 DUP1 REVERT JUMPDEST PUSH1 0x0 PUSH8 0xFFFFFFFFFFFFFFFF DUP3 GT ISZERO PUSH2 0x1624 JUMPI PUSH2 0x1623 PUSH2 0x1366 JUMP JUMPDEST JUMPDEST PUSH2 0x162D DUP3 PUSH2 0x1355 JUMP JUMPDEST SWAP1 POP PUSH1 0x20 DUP2 ADD SWAP1 POP SWAP2 SWAP1 POP JUMP JUMPDEST DUP3 DUP2 DUP4 CALLDATACOPY PUSH1 0x0 DUP4 DUP4 ADD MSTORE POP POP POP JUMP JUMPDEST PUSH1 0x0 PUSH2 0x165C PUSH2 0x1657 DUP5 PUSH2 0x1609 JUMP JUMPDEST PUSH2 0x13C6 JUMP JUMPDEST SWAP1 POP DUP3 DUP2 MSTORE PUSH1 0x20 DUP2 ADD DUP5 DUP5 DUP5 ADD GT ISZERO PUSH2 0x1678 JUMPI PUSH2 0x1677 PUSH2 0x1604 JUMP JUMPDEST JUMPDEST PUSH2 0x1683 DUP5 DUP3 DUP6 PUSH2 0x163A JUMP JUMPDEST POP SWAP4 SWAP3 POP POP POP JUMP JUMPDEST PUSH1 0x0 DUP3 PUSH1 0x1F DUP4 ADD SLT PUSH2 0x16A0 JUMPI PUSH2 0x169F PUSH2 0x1350 JUMP JUMPDEST JUMPDEST DUP2 CALLDATALOAD PUSH2 0x16B0 DUP5 DUP3 PUSH1 0x20 DUP7 ADD PUSH2 0x1649 JUMP JUMPDEST SWAP2 POP POP SWAP3 SWAP2 POP POP JUMP JUMPDEST PUSH1 0x0 PUSH1 0x20 DUP3 DUP5 SUB SLT ISZERO PUSH2 0x16CF JUMPI PUSH2 0x16CE PUSH2 0x10AB JUMP JUMPDEST JUMPDEST PUSH1 0x0 DUP3 ADD CALLDATALOAD PUSH8 0xFFFFFFFFFFFFFFFF DUP2 GT ISZERO PUSH2 0x16ED JUMPI PUSH2 0x16EC PUSH2 0x10B0 JUMP JUMPDEST JUMPDEST PUSH2 0x16F9 DUP5 DUP3 DUP6 ADD PUSH2 0x168B JUMP JUMPDEST SWAP2 POP POP SWAP3 SWAP2 POP POP JUMP JUMPDEST PUSH1 0x0 DUP2 ISZERO ISZERO SWAP1 POP SWAP2 SWAP1 POP JUMP JUMPDEST PUSH2 0x1717 DUP2 PUSH2 0x1702 JUMP JUMPDEST DUP3 MSTORE POP POP JUMP JUMPDEST PUSH1 0x0 DUP2 MLOAD SWAP1 POP SWAP2 SWAP1 POP JUMP JUMPDEST PUSH1 0x0 DUP3 DUP3 MSTORE PUSH1 0x20 DUP3 ADD SWAP1 POP SWAP3 SWAP2 POP POP JUMP JUMPDEST PUSH1 0x0 JUMPDEST DUP4 DUP2 LT ISZERO PUSH2 0x1757 JUMPI DUP1 DUP3 ADD MLOAD DUP2 DUP5 ADD MSTORE PUSH1 0x20 DUP2 ADD SWAP1 POP PUSH2 0x173C JUMP JUMPDEST PUSH1 0x0 DUP5 DUP5 ADD MSTORE POP POP POP POP JUMP JUMPDEST PUSH1 0x0 PUSH2 0x176E DUP3 PUSH2 0x171D JUMP JUMPDEST PUSH2 0x1778 DUP2 DUP6 PUSH2 0x1728 JUMP JUMPDEST SWAP4 POP PUSH2 0x1788 DUP2 DUP6 PUSH1 0x20 DUP7 ADD PUSH2 0x1739 JUMP JUMPDEST PUSH2 0x1791 DUP2 PUSH2 0x1355 JUMP JUMPDEST DUP5 ADD SWAP2 POP POP SWAP3 SWAP2 POP POP JUMP JUMPDEST PUSH1 0x0 PUSH1 0x40 DUP3 ADD SWAP1 POP PUSH2 0x17B1 PUSH1 0x0 DUP4 ADD DUP6 PUSH2 0x170E JUMP JUMPDEST DUP2 DUP2 SUB PUSH1 0x20 DUP4 ADD MSTORE PUSH2 0x17C3 DUP2 DUP5 PUSH2 0x1763 JUMP JUMPDEST SWAP1 POP SWAP4 SWAP3 POP POP POP JUMP JUMPDEST PUSH32 0x4E487B7100000000000000000000000000000000000000000000000000000000 PUSH1 0x0 MSTORE PUSH1 0x32 PUSH1 0x4 MSTORE PUSH1 0x24 PUSH1 0x0 REVERT JUMPDEST PUSH1 0x0 DUP2 SWAP1 POP SWAP3 SWAP2 POP POP JUMP JUMPDEST POP JUMP JUMPDEST PUSH1 0x0 PUSH2 0x1816 PUSH1 0x0 DUP4 PUSH2 0x17FB JUMP JUMPDEST SWAP2 POP PUSH2 0x1821 DUP3 PUSH2 0x1806 JUMP JUMPDEST PUSH1 0x0 DUP3 ADD SWAP1 POP SWAP2 SWAP1 POP JUMP JUMPDEST PUSH1 0x0 PUSH2 0x1837 DUP3 PUSH2 0x1809 JUMP JUMPDEST SWAP2 POP DUP2 SWAP1 POP SWAP2 SWAP1 POP JUMP JUMPDEST PUSH32 0x4E487B7100000000000000000000000000000000000000000000000000000000 PUSH1 0x0 MSTORE PUSH1 0x11 PUSH1 0x4 MSTORE PUSH1 0x24 PUSH1 0x0 REVERT JUMPDEST PUSH1 0x0 PUSH2 0x187B DUP3 PUSH2 0x1140 JUMP JUMPDEST SWAP2 POP PUSH32 0xFFFFFFFFFFFFFFFFFFFFFFFFFFFFFFFFFFFFFFFFFFFFFFFFFFFFFFFFFFFFFFFF DUP3 SUB PUSH2 0x18AD JUMPI PUSH2 0x18AC PUSH2 0x1841 JUMP JUMPDEST JUMPDEST PUSH1 0x1 DUP3 ADD SWAP1 POP SWAP2 SWAP1 POP JUMP JUMPDEST PUSH1 0x0 PUSH1 0x40 DUP3 ADD SWAP1 POP PUSH2 0x18CD PUSH1 0x0 DUP4 ADD DUP6 PUSH2 0x15DA JUMP JUMPDEST PUSH2 0x18DA PUSH1 0x20 DUP4 ADD DUP5 PUSH2 0x15DA JUMP JUMPDEST SWAP4 SWAP3 POP POP POP JUMP JUMPDEST PUSH1 0x0 PUSH1 0x60 DUP3 ADD SWAP1 POP PUSH2 0x18F6 PUSH1 0x0 DUP4 ADD DUP7 PUSH2 0x114A JUMP JUMPDEST PUSH2 0x1903 PUSH1 0x20 DUP4 ADD DUP6 PUSH2 0x114A JUMP JUMPDEST PUSH2 0x1910 PUSH1 0x40 DUP4 ADD DUP5 PUSH2 0x114A JUMP JUMPDEST SWAP5 SWAP4 POP POP POP POP JUMP JUMPDEST PUSH1 0x0 DUP2 SWAP1 POP SWAP2 SWAP1 POP JUMP JUMPDEST PUSH2 0x192B DUP2 PUSH2 0x1918 JUMP JUMPDEST DUP3 MSTORE POP POP JUMP JUMPDEST PUSH1 0x0 PUSH8 0xFFFFFFFFFFFFFFFF DUP3 AND SWAP1 POP SWAP2 SWAP1 POP JUMP JUMPDEST PUSH2 0x194E DUP2 PUSH2 0x1931 JUMP JUMPDEST DUP3 MSTORE POP POP JUMP JUMPDEST PUSH1 0x0 PUSH2 0xFFFF DUP3 AND SWAP1 POP SWAP2 SWAP1 POP JUMP JUMPDEST PUSH2 0x196B DUP2 PUSH2 0x1954 JUMP JUMPDEST DUP3 MSTORE POP POP JUMP JUMPDEST PUSH1 0x0 PUSH4 0xFFFFFFFF DUP3 AND SWAP1 POP SWAP2 SWAP1 POP JUMP JUMPDEST PUSH2 0x198A DUP2 PUSH2 0x1971 JUMP JUMPDEST DUP3 MSTORE POP POP JUMP JUMPDEST PUSH1 0x0 PUSH1 0xA0 DUP3 ADD SWAP1 POP PUSH2 0x19A5 PUSH1 0x0 DUP4 ADD DUP9 PUSH2 0x1922 JUMP JUMPDEST PUSH2 0x19B2 PUSH1 0x20 DUP4 ADD DUP8 PUSH2 0x1945 JUMP JUMPDEST PUSH2 0x19BF PUSH1 0x40 DUP4 ADD DUP7 PUSH2 0x1962 JUMP JUMPDEST PUSH2 0x19CC PUSH1 0x60 DUP4 ADD DUP6 PUSH2 0x1981 JUMP JUMPDEST PUSH2 0x19D9 PUSH1 0x80 DUP4 ADD DUP5 PUSH2 0x1981 JUMP JUMPDEST SWAP7 SWAP6 POP POP POP POP POP POP JUMP JUMPDEST PUSH1 0x0 DUP2 MLOAD SWAP1 POP PUSH2 0x19F2 DUP2 PUSH2 0x1324 JUMP JUMPDEST SWAP3 SWAP2 POP POP JUMP JUMPDEST PUSH1 0x0 PUSH1 0x20 DUP3 DUP5 SUB SLT ISZERO PUSH2 0x1A0E JUMPI PUSH2 0x1A0D PUSH2 0x10AB JUMP JUMPDEST JUMPDEST PUSH1 0x0 PUSH2 0x1A1C DUP5 DUP3 DUP6 ADD PUSH2 0x19E3 JUMP JUMPDEST SWAP2 POP POP SWAP3 SWAP2 POP POP JUMP JUMPDEST PUSH1 0x0 PUSH2 0x1A30 DUP3 PUSH2 0x1140 JUMP JUMPDEST SWAP2 POP PUSH2 0x1A3B DUP4 PUSH2 0x1140 JUMP JUMPDEST SWAP3 POP DUP3 DUP3 SUB SWAP1 POP DUP2 DUP2 GT ISZERO PUSH2 0x1A53 JUMPI PUSH2 0x1A52 PUSH2 0x1841 JUMP JUMPDEST JUMPDEST SWAP3 SWAP2 POP POP JUMP JUMPDEST PUSH32 0x4E487B7100000000000000000000000000000000000000000000000000000000 PUSH1 0x0 MSTORE PUSH1 0x12 PUSH1 0x4 MSTORE PUSH1 0x24 PUSH1 0x0 REVERT JUMPDEST PUSH1 0x0 PUSH2 0x1A93 DUP3 PUSH2 0x1140 JUMP JUMPDEST SWAP2 POP PUSH2 0x1A9E DUP4 PUSH2 0x1140 JUMP JUMPDEST SWAP3 POP DUP3 PUSH2 0x1AAE JUMPI PUSH2 0x1AAD PUSH2 0x1A59 JUMP JUMPDEST JUMPDEST DUP3 DUP3 MOD SWAP1 POP SWAP3 SWAP2 POP POP JUMP JUMPDEST PUSH1 0x0 PUSH2 0x1AC4 DUP3 PUSH2 0x1140 JUMP JUMPDEST SWAP2 POP PUSH2 0x1ACF DUP4 PUSH2 0x1140 JUMP JUMPDEST SWAP3 POP DUP3 PUSH2 0x1ADF JUMPI PUSH2 0x1ADE PUSH2 0x1A59 JUMP JUMPDEST JUMPDEST DUP3 DUP3 DIV SWAP1 POP SWAP3 SWAP2 POP POP JUMP JUMPDEST PUSH1 0x0 PUSH2 0x1AF5 DUP3 PUSH2 0x1140 JUMP JUMPDEST SWAP2 POP PUSH2 0x1B00 DUP4 PUSH2 0x1140 JUMP JUMPDEST SWAP3 POP DUP3 DUP3 ADD SWAP1 POP DUP1 DUP3 GT ISZERO PUSH2 0x1B18 JUMPI PUSH2 0x1B17 PUSH2 0x1841 JUMP JUMPDEST JUMPDEST SWAP3 SWAP2 POP POP JUMP JUMPDEST PUSH1 0x0 DUP2 SLOAD SWAP1 POP SWAP2 SWAP1 POP JUMP JUMPDEST PUSH1 0x0 DUP2 SWAP1 POP SWAP3 SWAP2 POP POP JUMP JUMPDEST PUSH1 0x0 DUP2 SWAP1 POP DUP2 PUSH1 0x0 MSTORE PUSH1 0x20 PUSH1 0x0 KECCAK256 SWAP1 POP SWAP2 SWAP1 POP JUMP JUMPDEST PUSH1 0x0 DUP2 PUSH1 0x0 SHR SWAP1 POP SWAP2 SWAP1 POP JUMP JUMPDEST PUSH1 0x0 PUSH20 0xFFFFFFFFFFFFFFFFFFFFFFFFFFFFFFFFFFFFFFFF DUP3 AND SWAP1 POP SWAP2 SWAP1 POP JUMP JUMPDEST PUSH1 0x0 PUSH2 0x1B89 PUSH2 0x1B84 DUP4 PUSH2 0x1B49 JUMP JUMPDEST PUSH2 0x1B56 JUMP JUMPDEST SWAP1 POP SWAP2 SWAP1 POP JUMP JUMPDEST PUSH2 0x1B99 DUP2 PUSH2 0x10D5 JUMP JUMPDEST DUP3 MSTORE POP POP JUMP JUMPDEST PUSH1 0x0 PUSH2 0x1BAB DUP4 DUP4 PUSH2 0x1B90 JUMP JUMPDEST PUSH1 0x20 DUP4 ADD SWAP1 POP SWAP3 SWAP2 POP POP JUMP JUMPDEST PUSH1 0x0 DUP2 SWAP1 POP SWAP2 SWAP1 POP JUMP JUMPDEST PUSH1 0x0 PUSH2 0x1BD4 PUSH2 0x1BCF DUP4 PUSH2 0x1B49 JUMP JUMPDEST PUSH2 0x1BB7 JUMP JUMPDEST SWAP1 POP SWAP2 SWAP1 POP JUMP JUMPDEST PUSH2 0x1BE4 DUP2 PUSH2 0x1140 JUMP JUMPDEST DUP3 MSTORE POP POP JUMP JUMPDEST PUSH1 0x0 PUSH2 0x1BF6 DUP4 DUP4 PUSH2 0x1BDB JUMP JUMPDEST PUSH1 0x20 DUP4 ADD SWAP1 POP SWAP3 SWAP2 POP POP JUMP JUMPDEST PUSH1 0x0 DUP3 ADD PUSH1 0x0 DUP1 DUP4 ADD SLOAD SWAP1 POP PUSH2 0x1C17 DUP2 PUSH2 0x1B76 JUMP JUMPDEST PUSH2 0x1C21 DUP6 DUP3 PUSH2 0x1B9F JUMP JUMPDEST SWAP5 POP POP PUSH1 0x1 DUP4 ADD SLOAD SWAP1 POP PUSH2 0x1C34 DUP2 PUSH2 0x1BC1 JUMP JUMPDEST PUSH2 0x1C3E DUP6 DUP3 PUSH2 0x1BEA JUMP JUMPDEST SWAP5 POP POP POP POP POP POP JUMP JUMPDEST PUSH1 0x0 PUSH2 0x1C53 DUP4 DUP4 PUSH2 0x1C02 JUMP JUMPDEST PUSH1 0x40 DUP4 ADD SWAP1 POP SWAP3 SWAP2 POP POP JUMP JUMPDEST PUSH1 0x0 PUSH1 0x2 DUP3 ADD SWAP1 POP SWAP2 SWAP1 POP JUMP JUMPDEST PUSH1 0x0 PUSH2 0x1C77 DUP3 PUSH2 0x1B1E JUMP JUMPDEST PUSH2 0x1C81 DUP2 DUP6 PUSH2 0x1B29 JUMP JUMPDEST SWAP4 POP PUSH2 0x1C8C DUP4 PUSH2 0x1B34 JUMP JUMPDEST DUP1 PUSH1 0x0 JUMPDEST DUP4 DUP2 LT ISZERO PUSH2 0x1CBC JUMPI DUP2 PUSH2 0x1CA3 DUP9 DUP3 PUSH2 0x1C47 JUMP JUMPDEST SWAP8 POP PUSH2 0x1CAE DUP4 PUSH2 0x1C5F JUMP JUMPDEST SWAP3 POP POP PUSH1 0x1 DUP2 ADD SWAP1 POP PUSH2 0x1C90 JUMP JUMPDEST POP DUP6 SWAP4 POP POP POP POP SWAP3 SWAP2 POP POP JUMP JUMPDEST PUSH1 0x0 PUSH2 0x1CD5 DUP3 DUP5 PUSH2 0x1C6C JUMP JUMPDEST SWAP2 POP DUP2 SWAP1 POP SWAP3 SWAP2 POP POP JUMP INVALID LOG2 PUSH5 0x6970667358 0x22 SLT KECCAK256 0xC6 ADDMOD PUSH5 0xEA911CA2F4 CALLVALUE BALANCE CODESIZE 0x4E CALLDATALOAD MUL GT 0xFC 0xD9 JUMPDEST PUSH2 0xE5 STATICCALL PUSH15 0x32D81DDC0F931CFD2064736F6C6343 STOP ADDMOD GT STOP CALLER "},"gasEstimates":{"creation":{"codeDepositCost":"1489200","executionCost":"infinite","totalCost":"infinite"},"external":{"checkUpkeep(bytes)":"infinite","enterRaffle(uint256)":"infinite","getEntranceFee()":"infinite","getInterval()":"infinite","getLastTimeStamp()":"2481","getNumWords()":"366","getNumberOfPlayers()":"2533","getPlayer(uint256)":"5033","getRaffleState()":"2636","getRecentWinner()":"2611","getRequestConfirmations()":"410","obtenerActualRondaLoteria()":"2482","obtenerGanadoresRecientes()":"infinite","performUpkeep(bytes)":"infinite","rawFulfillRandomWords(uint256,uint256[])":"infinite","sacarGanancias(address)":"infinite"},"internal":{"fulfillRandomWords(uint256,uint256[] memory)":"infinite"}},"methodIdentifiers":{"checkUpkeep(bytes)":"6e04ff0d","enterRaffle(uint256)":"2e519f90","getEntranceFee()":"09bc33a7","getInterval()":"91ad27b4","getLastTimeStamp()":"c1c244e8","getNumWords()":"53a2c19a","getNumberOfPlayers()":"fd6673f5","getPlayer(uint256)":"e55ae4e8","getRaffleState()":"115cbaf5","getRecentWinner()":"473f1ddc","getRequestConfirmations()":"5f1b0fd8","obtenerActualRondaLoteria()":"5617c2c1","obtenerGanadoresRecientes()":"166c13db","performUpkeep(bytes)":"4585e33b","rawFulfillRandomWords(uint256,uint256[])":"1fe543e3","sacarGanancias(address)":"098128e5"}},"storageLayout":{"storage":[{"astId":221,"contract":"contracts/RafflePersonalizado.sol:RafflePersonalizado","label":"s_lastTimeStamp","offset":0,"slot":"0","type":"t_uint256"},{"astId":223,"contract":"contracts/RafflePersonalizado.sol:RafflePersonalizado","label":"s_recentWinner","offset":0,"slot":"1","type":"t_address"},{"astId":226,"contract":"contracts/RafflePersonalizado.sol:RafflePersonalizado","label":"s_players","offset":0,"slot":"2","type":"t_array(t_address_payable)dyn_storage"},{"astId":229,"contract":"contracts/RafflePersonalizado.sol:RafflePersonalizado","label":"s_raffleState","offset":0,"slot":"3","type":"t_enum(RaffleState)200"},{"astId":235,"contract":"contracts/RafflePersonalizado.sol:RafflePersonalizado","label":"s_ronda_loteria","offset":0,"slot":"4","type":"t_uint256"},{"astId":243,"contract":"contracts/RafflePersonalizado.sol:RafflePersonalizado","label":"s_listado_jugadores","offset":0,"slot":"5","type":"t_mapping(t_uint256,t_mapping(t_uint256,t_array(t_struct(DatosJugador)248_storage)dyn_storage))"},{"astId":257,"contract":"contracts/RafflePersonalizado.sol:RafflePersonalizado","label":"ganadoresRecientes","offset":0,"slot":"6","type":"t_array(t_struct(JugadoresGanadores)253_storage)dyn_storage"}],"types":{"t_address":{"encoding":"inplace","label":"address","numberOfBytes":"20"},"t_address_payable":{"encoding":"inplace","label":"address payable","numberOfBytes":"20"},"t_array(t_address_payable)dyn_storage":{"base":"t_address_payable","encoding":"dynamic_array","label":"address payable[]","numberOfBytes":"32"},"t_array(t_struct(DatosJugador)248_storage)dyn_storage":{"base":"t_struct(DatosJugador)248_storage","encoding":"dynamic_array","label":"struct RafflePersonalizado.DatosJugador[]","numberOfBytes":"32"},"t_array(t_struct(JugadoresGanadores)253_storage)dyn_storage":{"base":"t_struct(JugadoresGanadores)253_storage","encoding":"dynamic_array","label":"struct RafflePersonalizado.JugadoresGanadores[]","numberOfBytes":"32"},"t_enum(RaffleState)200":{"encoding":"inplace","label":"enum RafflePersonalizado.RaffleState","numberOfBytes":"1"},"t_mapping(t_uint256,t_array(t_struct(DatosJugador)248_storage)dyn_storage)":{"encoding":"mapping","key":"t_uint256","label":"mapping(uint256 => struct RafflePersonalizado.DatosJugador[])","numberOfBytes":"32","value":"t_array(t_struct(DatosJugador)248_storage)dyn_storage"},"t_mapping(t_uint256,t_mapping(t_uint256,t_array(t_struct(DatosJugador)248_storage)dyn_storage))":{"encoding":"mapping","key":"t_uint256","label":"mapping(uint256 => mapping(uint256 => struct RafflePersonalizado.DatosJugador[]))","numberOfBytes":"32","value":"t_mapping(t_uint256,t_array(t_struct(DatosJugador)248_storage)dyn_storage)"},"t_struct(DatosJugador)248_storage":{"encoding":"inplace","label":"struct RafflePersonalizado.DatosJugador","members":[{"astId":245,"contract":"contracts/RafflePersonalizado.sol:RafflePersonalizado","label":"numJugado","offset":0,"slot":"0","type":"t_uint256"},{"astId":247,"contract":"contracts/RafflePersonalizado.sol:RafflePersonalizado","label":"jugador","offset":0,"slot":"1","type":"t_address"}],"numberOfBytes":"64"},"t_struct(JugadoresGanadores)253_storage":{"encoding":"inplace","label":"struct RafflePersonalizado.JugadoresGanadores","members":[{"astId":250,"contract":"contracts/RafflePersonalizado.sol:RafflePersonalizado","label":"jugador","offset":0,"slot":"0","type":"t_address"},{"astId":252,"contract":"contracts/RafflePersonalizado.sol:RafflePersonalizado","label":"cantidadGanada","offset":0,"slot":"1","type":"t_uint256"}],"numberOfBytes":"64"},"t_uint256":{"encoding":"inplace","label":"uint256","numberOfBytes":"32"}}},"userdoc":{"kind":"user","methods":{"obtenerGanadoresRecientes()":{"notice":"Getter Functions "}},"notice":"Contrato sin verificar para ver si se puede decodificar desde la web","version":1}}}}