{
  "_format": "hh-sol-artifact-1",
  "contractName": "RafflePersonalizado",
  "sourceName": "contracts/RafflePersonalizado.sol",
  "abi": [
    {
      "inputs": [
        {
          "internalType": "address",
          "name": "vrfCoordinatorV2",
          "type": "address"
        },
        {
          "internalType": "uint64",
          "name": "subscriptionId",
          "type": "uint64"
        },
        {
          "internalType": "bytes32",
          "name": "gasLane",
          "type": "bytes32"
        },
        {
          "internalType": "uint256",
          "name": "interval",
          "type": "uint256"
        },
        {
          "internalType": "uint256",
          "name": "entranceFee",
          "type": "uint256"
        },
        {
          "internalType": "uint32",
          "name": "callbackGasLimit",
          "type": "uint32"
        }
      ],
      "stateMutability": "nonpayable",
      "type": "constructor"
    },
    {
      "inputs": [
        {
          "internalType": "address",
          "name": "have",
          "type": "address"
        },
        {
          "internalType": "address",
          "name": "want",
          "type": "address"
        }
      ],
      "name": "OnlyCoordinatorCanFulfill",
      "type": "error"
    },
    {
      "inputs": [],
      "name": "Raffle__RaffleNotOpen",
      "type": "error"
    },
    {
      "inputs": [],
      "name": "Raffle__SendMoreToEnterRaffle",
      "type": "error"
    },
    {
      "inputs": [],
      "name": "Raffle__TransferFailed",
      "type": "error"
    },
    {
      "inputs": [
        {
          "internalType": "uint256",
          "name": "currentBalance",
          "type": "uint256"
        },
        {
          "internalType": "uint256",
          "name": "numPlayers",
          "type": "uint256"
        },
        {
          "internalType": "uint256",
          "name": "raffleState",
          "type": "uint256"
        }
      ],
      "name": "Raffle__UpkeepNotNeeded",
      "type": "error"
    },
    {
      "anonymous": false,
      "inputs": [
        {
          "indexed": true,
          "internalType": "address",
          "name": "player",
          "type": "address"
        }
      ],
      "name": "RaffleEnter",
      "type": "event"
    },
    {
      "anonymous": false,
      "inputs": [
        {
          "indexed": true,
          "internalType": "uint256",
          "name": "requestId",
          "type": "uint256"
        }
      ],
      "name": "RequestedRaffleWinner",
      "type": "event"
    },
    {
      "anonymous": false,
      "inputs": [
        {
          "indexed": true,
          "internalType": "address",
          "name": "player",
          "type": "address"
        }
      ],
      "name": "WinnerPicked",
      "type": "event"
    },
    {
      "inputs": [
        {
          "internalType": "bytes",
          "name": "",
          "type": "bytes"
        }
      ],
      "name": "checkUpkeep",
      "outputs": [
        {
          "internalType": "bool",
          "name": "upkeepNeeded",
          "type": "bool"
        },
        {
          "internalType": "bytes",
          "name": "",
          "type": "bytes"
        }
      ],
      "stateMutability": "view",
      "type": "function"
    },
    {
      "inputs": [
        {
          "internalType": "uint256",
          "name": "numTicket",
          "type": "uint256"
        }
      ],
      "name": "enterRaffle",
      "outputs": [],
      "stateMutability": "payable",
      "type": "function"
    },
    {
      "inputs": [],
      "name": "getEntranceFee",
      "outputs": [
        {
          "internalType": "uint256",
          "name": "",
          "type": "uint256"
        }
      ],
      "stateMutability": "view",
      "type": "function"
    },
    {
      "inputs": [],
      "name": "getInterval",
      "outputs": [
        {
          "internalType": "uint256",
          "name": "",
          "type": "uint256"
        }
      ],
      "stateMutability": "view",
      "type": "function"
    },
    {
      "inputs": [],
      "name": "getLastTimeStamp",
      "outputs": [
        {
          "internalType": "uint256",
          "name": "",
          "type": "uint256"
        }
      ],
      "stateMutability": "view",
      "type": "function"
    },
    {
      "inputs": [],
      "name": "getNumWords",
      "outputs": [
        {
          "internalType": "uint256",
          "name": "",
          "type": "uint256"
        }
      ],
      "stateMutability": "pure",
      "type": "function"
    },
    {
      "inputs": [],
      "name": "getNumberOfPlayers",
      "outputs": [
        {
          "internalType": "uint256",
          "name": "",
          "type": "uint256"
        }
      ],
      "stateMutability": "view",
      "type": "function"
    },
    {
      "inputs": [
        {
          "internalType": "uint256",
          "name": "index",
          "type": "uint256"
        }
      ],
      "name": "getPlayer",
      "outputs": [
        {
          "internalType": "address",
          "name": "",
          "type": "address"
        }
      ],
      "stateMutability": "view",
      "type": "function"
    },
    {
      "inputs": [],
      "name": "getRaffleState",
      "outputs": [
        {
          "internalType": "enum RafflePersonalizado.RaffleState",
          "name": "",
          "type": "uint8"
        }
      ],
      "stateMutability": "view",
      "type": "function"
    },
    {
      "inputs": [],
      "name": "getRecentWinner",
      "outputs": [
        {
          "internalType": "address",
          "name": "",
          "type": "address"
        }
      ],
      "stateMutability": "view",
      "type": "function"
    },
    {
      "inputs": [],
      "name": "getRequestConfirmations",
      "outputs": [
        {
          "internalType": "uint256",
          "name": "",
          "type": "uint256"
        }
      ],
      "stateMutability": "pure",
      "type": "function"
    },
    {
      "inputs": [
        {
          "internalType": "bytes",
          "name": "",
          "type": "bytes"
        }
      ],
      "name": "performUpkeep",
      "outputs": [],
      "stateMutability": "nonpayable",
      "type": "function"
    },
    {
      "inputs": [
        {
          "internalType": "uint256",
          "name": "requestId",
          "type": "uint256"
        },
        {
          "internalType": "uint256[]",
          "name": "randomWords",
          "type": "uint256[]"
        }
      ],
      "name": "rawFulfillRandomWords",
      "outputs": [],
      "stateMutability": "nonpayable",
      "type": "function"
    }
  ],
  "bytecode": "0x6101606040523480156200001257600080fd5b506040516200189438038062001894833981810160405281019062000038919062000294565b858073ffffffffffffffffffffffffffffffffffffffff1660808173ffffffffffffffffffffffffffffffffffffffff1681525050508573ffffffffffffffffffffffffffffffffffffffff1660a08173ffffffffffffffffffffffffffffffffffffffff16815250508360e081815250508261012081815250508467ffffffffffffffff1660c08167ffffffffffffffff16815250508161014081815250506000600360006101000a81548160ff0219169083600181111562000101576200010062000330565b5b0217905550426000819055508063ffffffff166101008163ffffffff16815250505050505050506200035f565b600080fd5b600073ffffffffffffffffffffffffffffffffffffffff82169050919050565b6000620001608262000133565b9050919050565b620001728162000153565b81146200017e57600080fd5b50565b600081519050620001928162000167565b92915050565b600067ffffffffffffffff82169050919050565b620001b78162000198565b8114620001c357600080fd5b50565b600081519050620001d781620001ac565b92915050565b6000819050919050565b620001f281620001dd565b8114620001fe57600080fd5b50565b6000815190506200021281620001e7565b92915050565b6000819050919050565b6200022d8162000218565b81146200023957600080fd5b50565b6000815190506200024d8162000222565b92915050565b600063ffffffff82169050919050565b6200026e8162000253565b81146200027a57600080fd5b50565b6000815190506200028e8162000263565b92915050565b60008060008060008060c08789031215620002b457620002b36200012e565b5b6000620002c489828a0162000181565b9650506020620002d789828a01620001c6565b9550506040620002ea89828a0162000201565b9450506060620002fd89828a016200023c565b93505060806200031089828a016200023c565b92505060a06200032389828a016200027d565b9150509295509295509295565b7f4e487b7100000000000000000000000000000000000000000000000000000000600052602160045260246000fd5b60805160a05160c05160e0516101005161012051610140516114c5620003cf6000396000818161030c015261040901526000818161083501526108de015260006106f3015260006106af015260006106d001526000610673015260008181610349015261039d01526114c56000f3fe6080604052600436106100c25760003560e01c806353a2c19a1161007f57806391ad27b41161005957806391ad27b41461024a578063c1c244e814610275578063e55ae4e8146102a0578063fd6673f5146102dd576100c2565b806353a2c19a146101b65780635f1b0fd8146101e15780636e04ff0d1461020c576100c2565b806309bc33a7146100c7578063115cbaf5146100f25780631fe543e31461011d5780632e519f90146101465780634585e33b14610162578063473f1ddc1461018b575b600080fd5b3480156100d357600080fd5b506100dc610308565b6040516100e99190610c4f565b60405180910390f35b3480156100fe57600080fd5b50610107610330565b6040516101149190610ce1565b60405180910390f35b34801561012957600080fd5b50610144600480360381019061013f9190610e95565b610347565b005b610160600480360381019061015b9190610ef1565b610407565b005b34801561016e57600080fd5b5061018960048036038101906101849190610f79565b6105bb565b005b34801561019757600080fd5b506101a06107ac565b6040516101ad9190611007565b60405180910390f35b3480156101c257600080fd5b506101cb6107d6565b6040516101d89190610c4f565b60405180910390f35b3480156101ed57600080fd5b506101f66107e5565b6040516102039190610c4f565b60405180910390f35b34801561021857600080fd5b50610233600480360381019061022e91906110d7565b6107f2565b6040516102419291906111ba565b60405180910390f35b34801561025657600080fd5b5061025f6108da565b60405161026c9190610c4f565b60405180910390f35b34801561028157600080fd5b5061028a610902565b6040516102979190610c4f565b60405180910390f35b3480156102ac57600080fd5b506102c760048036038101906102c29190610ef1565b61090b565b6040516102d49190611007565b60405180910390f35b3480156102e957600080fd5b506102f2610953565b6040516102ff9190610c4f565b60405180910390f35b60007f0000000000000000000000000000000000000000000000000000000000000000905090565b6000600360009054906101000a900460ff16905090565b7f000000000000000000000000000000000000000000000000000000000000000073ffffffffffffffffffffffffffffffffffffffff163373ffffffffffffffffffffffffffffffffffffffff16146103f957337f00000000000000000000000000000000000000000000000000000000000000006040517f1cf993f40000000000000000000000000000000000000000000000000000000081526004016103f09291906111ea565b60405180910390fd5b6104038282610960565b5050565b7f0000000000000000000000000000000000000000000000000000000000000000341015610461576040517f3038c00a00000000000000000000000000000000000000000000000000000000815260040160405180910390fd5b6000600181111561047557610474610c6a565b5b600360009054906101000a900460ff16600181111561049757610496610c6a565b5b146104ce576040517fd24a271400000000000000000000000000000000000000000000000000000000815260040160405180910390fd5b6002339080600181540180825580915050600190039060005260206000200160009091909190916101000a81548173ffffffffffffffffffffffffffffffffffffffff021916908373ffffffffffffffffffffffffffffffffffffffff16021790555080600460003373ffffffffffffffffffffffffffffffffffffffff1673ffffffffffffffffffffffffffffffffffffffff168152602001908152602001600020819055503373ffffffffffffffffffffffffffffffffffffffff167f0805e1d667bddb8a95f0f09880cf94f403fb596ce79928d9f29b74203ba284d460405160405180910390a250565b60006105d5604051806020016040528060008152506107f2565b509050806106445747600280549050600360009054906101000a900460ff16600181111561060657610605610c6a565b5b6040517f584327aa00000000000000000000000000000000000000000000000000000000815260040161063b93929190611213565b60405180910390fd5b6001600360006101000a81548160ff0219169083600181111561066a57610669610c6a565b5b021790555060007f000000000000000000000000000000000000000000000000000000000000000073ffffffffffffffffffffffffffffffffffffffff16635d3b1d307f00000000000000000000000000000000000000000000000000000000000000007f000000000000000000000000000000000000000000000000000000000000000060037f000000000000000000000000000000000000000000000000000000000000000060016040518663ffffffff1660e01b81526004016107349594939291906112c2565b6020604051808303816000875af1158015610753573d6000803e3d6000fd5b505050506040513d601f19601f82011682018060405250810190610777919061132a565b9050807fcd6e45c8998311cab7e9d4385596cac867e20a0587194b954fa3a731c93ce78b60405160405180910390a250505050565b6000600160009054906101000a900473ffffffffffffffffffffffffffffffffffffffff16905090565b6000600163ffffffff16905090565b6000600361ffff16905090565b600060606000600360009054906101000a900460ff16600181111561081a57610819610c6a565b5b6000600181111561082e5761082d610c6a565b5b14905060007f0000000000000000000000000000000000000000000000000000000000000000600054426108629190611386565b119050600080600280549050119050600080471190508280156108825750835b801561088b5750805b80156108945750815b9550856040518060400160405280600381526020017f30783000000000000000000000000000000000000000000000000000000000008152509550955050505050915091565b60007f0000000000000000000000000000000000000000000000000000000000000000905090565b60008054905090565b600060028281548110610921576109206113ba565b5b9060005260206000200160009054906101000a900473ffffffffffffffffffffffffffffffffffffffff169050919050565b6000600280549050905090565b6000606482600081518110610978576109776113ba565b5b602002602001015161098a9190611418565b90506000600282815481106109a2576109a16113ba565b5b9060005260206000200160009054906101000a900473ffffffffffffffffffffffffffffffffffffffff16905080600160006101000a81548173ffffffffffffffffffffffffffffffffffffffff021916908373ffffffffffffffffffffffffffffffffffffffff160217905550600067ffffffffffffffff811115610a2b57610a2a610d52565b5b604051908082528060200260200182016040528015610a595781602001602082028036833780820191505090505b5060029080519060200190610a6f929190610b8f565b506000600360006101000a81548160ff02191690836001811115610a9657610a95610c6a565b5b02179055504260008190555060008173ffffffffffffffffffffffffffffffffffffffff1647604051610ac89061147a565b60006040518083038185875af1925050503d8060008114610b05576040519150601f19603f3d011682016040523d82523d6000602084013e610b0a565b606091505b5050905080610b45576040517fa1d04b3900000000000000000000000000000000000000000000000000000000815260040160405180910390fd5b8173ffffffffffffffffffffffffffffffffffffffff167f5b690ec4a06fe979403046eaeea5b3ce38524683c3001f662c8b5a829632f7df60405160405180910390a25050505050565b828054828255906000526020600020908101928215610c08579160200282015b82811115610c075782518260006101000a81548173ffffffffffffffffffffffffffffffffffffffff021916908373ffffffffffffffffffffffffffffffffffffffff16021790555091602001919060010190610baf565b5b509050610c159190610c19565b5090565b5b80821115610c32576000816000905550600101610c1a565b5090565b6000819050919050565b610c4981610c36565b82525050565b6000602082019050610c646000830184610c40565b92915050565b7f4e487b7100000000000000000000000000000000000000000000000000000000600052602160045260246000fd5b60028110610caa57610ca9610c6a565b5b50565b6000819050610cbb82610c99565b919050565b6000610ccb82610cad565b9050919050565b610cdb81610cc0565b82525050565b6000602082019050610cf66000830184610cd2565b92915050565b6000604051905090565b600080fd5b600080fd5b610d1981610c36565b8114610d2457600080fd5b50565b600081359050610d3681610d10565b92915050565b600080fd5b6000601f19601f8301169050919050565b7f4e487b7100000000000000000000000000000000000000000000000000000000600052604160045260246000fd5b610d8a82610d41565b810181811067ffffffffffffffff82111715610da957610da8610d52565b5b80604052505050565b6000610dbc610cfc565b9050610dc88282610d81565b919050565b600067ffffffffffffffff821115610de857610de7610d52565b5b602082029050602081019050919050565b600080fd5b6000610e11610e0c84610dcd565b610db2565b90508083825260208201905060208402830185811115610e3457610e33610df9565b5b835b81811015610e5d5780610e498882610d27565b845260208401935050602081019050610e36565b5050509392505050565b600082601f830112610e7c57610e7b610d3c565b5b8135610e8c848260208601610dfe565b91505092915050565b60008060408385031215610eac57610eab610d06565b5b6000610eba85828601610d27565b925050602083013567ffffffffffffffff811115610edb57610eda610d0b565b5b610ee785828601610e67565b9150509250929050565b600060208284031215610f0757610f06610d06565b5b6000610f1584828501610d27565b91505092915050565b600080fd5b60008083601f840112610f3957610f38610d3c565b5b8235905067ffffffffffffffff811115610f5657610f55610f1e565b5b602083019150836001820283011115610f7257610f71610df9565b5b9250929050565b60008060208385031215610f9057610f8f610d06565b5b600083013567ffffffffffffffff811115610fae57610fad610d0b565b5b610fba85828601610f23565b92509250509250929050565b600073ffffffffffffffffffffffffffffffffffffffff82169050919050565b6000610ff182610fc6565b9050919050565b61100181610fe6565b82525050565b600060208201905061101c6000830184610ff8565b92915050565b600080fd5b600067ffffffffffffffff82111561104257611041610d52565b5b61104b82610d41565b9050602081019050919050565b82818337600083830152505050565b600061107a61107584611027565b610db2565b90508281526020810184848401111561109657611095611022565b5b6110a1848285611058565b509392505050565b600082601f8301126110be576110bd610d3c565b5b81356110ce848260208601611067565b91505092915050565b6000602082840312156110ed576110ec610d06565b5b600082013567ffffffffffffffff81111561110b5761110a610d0b565b5b611117848285016110a9565b91505092915050565b60008115159050919050565b61113581611120565b82525050565b600081519050919050565b600082825260208201905092915050565b60005b8381101561117557808201518184015260208101905061115a565b60008484015250505050565b600061118c8261113b565b6111968185611146565b93506111a6818560208601611157565b6111af81610d41565b840191505092915050565b60006040820190506111cf600083018561112c565b81810360208301526111e18184611181565b90509392505050565b60006040820190506111ff6000830185610ff8565b61120c6020830184610ff8565b9392505050565b60006060820190506112286000830186610c40565b6112356020830185610c40565b6112426040830184610c40565b949350505050565b6000819050919050565b61125d8161124a565b82525050565b600067ffffffffffffffff82169050919050565b61128081611263565b82525050565b600061ffff82169050919050565b61129d81611286565b82525050565b600063ffffffff82169050919050565b6112bc816112a3565b82525050565b600060a0820190506112d76000830188611254565b6112e46020830187611277565b6112f16040830186611294565b6112fe60608301856112b3565b61130b60808301846112b3565b9695505050505050565b60008151905061132481610d10565b92915050565b6000602082840312156113405761133f610d06565b5b600061134e84828501611315565b91505092915050565b7f4e487b7100000000000000000000000000000000000000000000000000000000600052601160045260246000fd5b600061139182610c36565b915061139c83610c36565b92508282039050818111156113b4576113b3611357565b5b92915050565b7f4e487b7100000000000000000000000000000000000000000000000000000000600052603260045260246000fd5b7f4e487b7100000000000000000000000000000000000000000000000000000000600052601260045260246000fd5b600061142382610c36565b915061142e83610c36565b92508261143e5761143d6113e9565b5b828206905092915050565b600081905092915050565b50565b6000611464600083611449565b915061146f82611454565b600082019050919050565b600061148582611457565b915081905091905056fea2646970667358221220896b591b998097f0f181af3e5be8d13fe0437e746d34f1055c6788ddf8a99ab764736f6c63430008110033",
  "linkReferences": {},
  "deployedLinkReferences": {}
}